:020000040800F2
:10000000A83E0020E1010008A14400080D390008C5
:1000100041430008150F0008EB69000800000000CC
:10002000000000000000000000000000490100087E
:100030003D120008000000008D0100086D4C000812
:10004000FB010008FB010008FB010008FB010008A0
:10005000FB010008FB010008FB010008FB01000890
:10006000FB010008FB010008FB010008FB01000880
:10007000FB010008FB010008FB010008FB01000870
:10008000FB010008FB010008FB010008FB01000860
:1000900075690008FB010008FB0100084312000815
:1000A000FB010008FB010008FB010008FB01000840
:1000B000FB010008FB010008FB010008FB01000830
:1000C000FB010008FB010008FB010008FB01000820
:1000D000FB010008415200084D5200085952000827
:1000E000FB010008FB010008FB010008FB01000800
:1000F000FB010008FB010008FB010008FB010008F0
:10010000FB010008FB010008154D0008FB01000879
:10011000DD4F0008E94F0008214D0008FB010008F1
:10012000FB01000831120008FB010008FB01000878
:10013000DFF810D000F0E0FB0048004783790008AA
:10014000AFF30080A83E0020224B19680868B0E891
:10015000F00F80F30988BFF36F8F4FF0000080F33A
:1001600011884EF00D0E7047000000000648006830
:10017000006880F3088862B661B6BFF34F8FBFF3A3
:100180006F8F00DF00BF00BF08ED00E0EFF30980D4
:10019000BFF36F8F0F4B1A6820E9F00F106008B59E
:1001A0004FF0500080F31188BFF34F8FBFF36F8F74
:1001B00008F020FE4FF0000080F31188BDE80840F1
:1001C00019680868B0E8F00F80F30988BFF36F8FF3
:1001D000704700BF4C000020EFF30580704700001F
:1001E0000648804706480047FEE7FEE7FEE7FEE7D1
:1001F000FEE7FEE7FEE7FEE7FEE7FEE7114D00083B
:1002000031010008202A04DB203A21FA02F0002103
:10021000704721FA02F3D040C2F120029140084316
:100220001946704740EA01039B0703D009E008C95B
:10023000121F08C0042AFAD203E011F8013B00F8AB
:10024000013B521EF9D27047D2B201E000F8012BF7
:10025000491EFBD270470022F6E710B513460A4646
:1002600004461946FFF7F0FF204610BDF0B480EABF
:100270000102D40F4200B2EB410F02D202460846FF
:1002800011464A0042D0C30DDDB2C1F3C752AD1AC8
:10029000202D35DAC1F3160141F4000204B15242B7
:1002A000C5F1200602FA06F12A411044B3EBD05FF3
:1002B00023D0C4B1012DA0EBC35009DCF0BC4FF03A
:1002C000004202EAC352DBB200F5000000F02EB992
:1002D000400000F1807000EBC350A0F1807040EA54
:1002E000D170490009E0490841EAC071A0EBC35050
:1002F00000F50000400800EBC350F0BC00F00DB961
:100300006142012202EB4101001BF6E7F0BC70479D
:1003100081F00041AAE780F00040A7E780EA0102EF
:1003200010B502F00043400022D04A001FD0010E59
:1003300001EB1261C0F35600C2F3560240F4000014
:1003400042F40002A0FB022000047F39140400D014
:10035000401C50EA124001D44000491EC2B20C06B3
:1003600004EBD010401C4008802A02D003E000209B
:1003700010BD20F00100002900DA0020184310BD54
:1003800030B480EA010202F0004530F0004221F072
:10039000004013D090B1C30DD40DC2F31601C0F3C9
:1003A0001600E41A41F4000140F400027D34914249
:1003B00001D3641C00E04900002C02DA30BC0020AC
:1003C00070474FF400000023914201D3891A034380
:1003D00040084FEA4101F7D151B1914202D14FF0AB
:1003E000004105E002D24FF0010101E06FF0010190
:1003F00003EBC450284430BC00F08FB8420005D055
:10040000C0F3C7525242914201DC0020704700EB1A
:10041000C1507047C10F80EAE0700844CA079623B4
:10042000002100F083B896230022114600F07EB828
:1004300000F0004220F00040C10DC0F3160040F46F
:1004400000007F2901DA00207047962903DCC1F102
:100450009601C84001E096398840002AF4D0404215
:1004600070470000002801DBC0F10040002901DBDB
:10047000C1F1004181427047002801DBC0F100401A
:10048000002901DBC1F100418842704730B50B46BD
:10049000014600202022012409E021FA02F59D42B4
:1004A00005D303FA02F5491B04FA02F52844151E88
:1004B000A2F10102F1DC30BD2DE9F05F054600201C
:1004C00092469B4688460646814640241BE02846C5
:1004D000414647462246FFF795FE53465A46C01A04
:1004E000914110D311461846224600F017FA2D1AF2
:1004F00067EB01084F4622460120002100F00EFA6A
:1005000017EB00094E41201EA4F10104DFDC484630
:1005100031462A464346BDE8F09F0029A8BF7047F0
:10052000401C490008BF20F00100704710B4B0FA29
:1005300080FC00FA0CF050EA010404BF10BC7047C4
:1005400049B1CCF1200421FA04F411FA0CF118BFDE
:10055000012121430843A3EB0C01CB1D4FEA0061AD
:100560004FEA102042BF002010BC704700EBC35080
:1005700010440029A4BF10BC7047401C490008BFAC
:1005800020F0010010BC70472DE9FE4F804681EA43
:100590000300C00F0C46009021F0004123F00045FD
:1005A000B8EB0200A94105D24046214690461C46C0
:1005B0000B46024623F00040104347D0270DC7F3F7
:1005C0000A00C3F30A510290401A019040286BDAE6
:1005D000C3F3130040F4801B0098924620B100231F
:1005E000D2EB030A63EB0B0B01985946C0F14002B2
:1005F000504600F093F906460D4650465946019A7A
:1006000000F09BF910EB08006141002487EA1152C9
:1006100084EAE7731A4340D0009A62B3019A012A30
:100620004FEA075215DC001B61EB02014FF000425C
:1006300002EA0752CDE90042001C41F58011324622
:100640002B4600F09BF903B0BDE8F08F40462146F1
:10065000F9E7001B61EB0201001C41F58013001853
:100660005B412018A2F5001747EB030140EAD57063
:10067000B6196D4111E06D084FEA360645EAC075BE
:100680004FEA0752001B61EB0201001C41F580118B
:1006900049084FEA30000019514132462B4603B059
:1006A000BDE8F04F00F05BB9009801224000002344
:1006B000D0EB020263EBE073009821464FEAE0744E
:1006C000B8EB000061EB0401E9E783F000435BE76E
:1006D00081F0004158E72DE9FE4F81EA030404F060
:1006E000004421F0004100944FF0000B23F0004340
:1006F00050EA01045ED052EA03045BD0C3F30A540B
:10070000C1F30A552C44A4F2F3340194A0FB025423
:10071000C1F3130141F48011C3F3130343F48013B5
:1007200001FB024400FB034E840A970A44EA815409
:1007300047EA8357A4FB076802958D0A05FB0785E6
:100740004FEA932C04FB0C542705029D4FEA0658F0
:1007500047EA1637B5EB08056EEB070C870E920ECD
:1007600047EA811742EA8312A7FB0201B6EB0B01AD
:1007700064EB00042B0D43EA0C335E1844EB1C5071
:10078000DA465146E7FB0201C5F313044FEA0B3387
:1007900043EA14534FEA0432019C43EA0603A4F1EE
:1007A0000C040294009CCDE900B400F0E7F803B01B
:1007B000BDE8F08F00200146F9E72DE9F04D81EA10
:1007C000030404F0004B21F0004514464FF0000AEA
:1007D00023F0004150EA050220D054EA01021DD066
:1007E000C5F30A570246C5F31303C1F31300C1F35F
:1007F0000A5640F4801543F48013A7EB0608101B3B
:10080000D64608F2FD3873EB050002D308F1010863
:1008100001E092185B41B8F1000F03DA00200146B5
:10082000BDE8F08D00204FF48011064684460EE0AE
:10083000171B73EB050705D3121B63EB0503064378
:100840004CEA010C49084FEA300092185B4150EA2B
:100850000107EDD152EA030012D082EA040083EAD4
:100860000501084305D0101BAB4106D2012200232D
:1008700006E000224FF0004302E06FF00102531047
:100880001AEB06004CEB085110EB0A0041EB0B0190
:10089000BDE8F04D00F063B8C1F30A52C1F3130193
:1008A00040F2FF3341F480119A4202DA00200146FF
:1008B000704740F233439A42A2F2334202DC524282
:1008C000FFF7A0BC00F02AB830B5041E71F1000497
:1008D00004DB4FF00044404264EB0101141E73F14D
:1008E000000405DB1C464FF00043524263EB040357
:1008F000994208BF904230BD064C074D06E0E068C3
:1009000040F0010394E8070098471034AC42F6D356
:10091000FFF712FC08A3000828A30008202A04DB24
:10092000203A00FA02F1002070479140C2F1200302
:1009300020FA03F3194390407047202A06DBCB17B7
:10094000203A41FA02F043EAE07306E041FA02F38A
:10095000D040C2F12002914008431946704710B5BB
:10096000141E73F1000408DA401C41F100019218D2
:100970005B411A4301D120F0010010BD2DE9F04D7B
:1009800092469B4611B1B1FA81F202E0B0FA80F2D0
:1009900020329046FFF7C2FF04460F4640EA0A00A5
:1009A00041EA0B0153465A46084313D0114653EA15
:1009B000010019D0C8F140025046FFF723FC05465C
:1009C0000E46504659464246FFF7A8FF084305D059
:1009D000012004E020463946BDE8F08D00200543A3
:1009E00046EAE0762C4337430A986305E40AA0EB15
:1009F00008000022FD0A44EA47540A3002D50020CC
:100A00000146E9E7010510196941DDE908450019CA
:100A10006941BDE8F04DA2E770B58C1810F8015B94
:100A200015F0070301D110F8013B2A1106D110F887
:100A3000012B03E010F8016B01F8016B5B1EF9D18B
:100A40002B0705D40023521E0DD401F8013BFAE711
:100A500010F8013BCB1A921C03E013F8015B01F87C
:100A6000015B521EF9D5A142D8D3002070BD000011
:100A70002DE9FC5F83462B482B4E8A46A6F5A474CD
:100A800081460146904604F5BC755046FFF740FC90
:100A900007463068FFF7C7FC3946FFF7E3FC0BD386
:100AA00049465046FFF7E2FB07463068FFF7BBFCBC
:100AB0003946FFF7E1FC0AD21B481C495838C06888
:100AC000FFF72CFCD4F89410FFF7D0FB01E0D4F82A
:100AD0009400A860B6F90800FFF79CFC686100224A
:100AE000CDE90028034612495846AA6803F0E4FEFF
:100AF000104D0D487C38296980680E46FFF708FCC8
:100B00000D49FFF70BFC3146FFF7B0FB01462861AA
:100B10006869FFF703FC616BFFF7A8FB6063BDE842
:100B2000FC9F000000004843B83500209A99193F07
:100B30007034002038020020CDCC4C3E2DE9FC471B
:100B4000254C8146A4F164000D46C1689046214EB3
:100B50004846FFF7E3FBA168FFF788FB0746A06064
:100B600031466069FFF7D4FB3946FFF785FC6069C1
:100B7000314602D8FFF7CCFB0BE0FFF777FBA1680B
:100B8000FFF770FC04D231466069FFF76FFB00E0AD
:100B9000A0681249A0608D420AD2B0F5000F01DAB8
:100BA000002504E02946FFF767FC00D3A568A5608F
:100BB00009480C380068FFF736FC60610022CDE977
:100BC000002805490346F4394846A26803F074FE3C
:100BD000BDE8FC8700004843C435002017B7D1B8F2
:100BE0002DE9F34F344D354883B00E46AC78B0F95B
:100BF0000600FFF70FFCDFF8C8B081464FF0000A8F
:100C0000012C13D185F803A0E96854464846FFF744
:100C10002DFB0146E878401CC0B2E8700A28F5D3E5
:100C200008465946FFF7ACFBE860AC70254F4846D4
:100C3000E968D7F8F4807C6BFFF76DFB5946FFF746
:100C40009FFBD7F8E011FFF769FB05461E481F49D7
:100C5000844201D3024603E00A46944200DC224665
:100C6000804501D3804602E0884500DD8846134870
:100C700057461830D0E90013D0F8089081F00044AE
:100C8000CDE900A6A0F55E71039803F015FECDE94D
:100C90000076234642460E49039803F00DFE0C49A8
:100CA000CDE900764B462A46C031039803F004FE96
:100CB00005B0BDE8F08F000038020020303500207C
:100CC00000002041703100200000C8C40000C8446A
:100CD000903200202DE9F34F5B48894683B00178BC
:100CE0004FF0000A012931D180F801A0D0E9017646
:100CF000DFF858B18046BBF90000FFF78BFB00908E
:100D0000BBF90200FFF786FB834639460098FFF7E0
:100D1000ADFA074658463146FFF7A8FA98F8011091
:100D20000646491CC9B288F801100A29EDD3384695
:100D3000474F3946FFF724FBC8F8040039463046D0
:100D4000FFF71EFBC8F8080088F800A03F48B8303D
:100D5000816981F000410191C069214680F0004025
:100D600000900198FFF782FA4FF4000B584501DA22
:100D700080F00040DFF8DC80374E4FF07E57404572
:100D800010DA36490198FFF7C9FA0399FFF7C6FA56
:100D90002146FFF76BFA3446A04203D23C46A042FC
:100DA00000DC044629460098FFF760FA584501DA4E
:100DB00080F00040404510DA28490098FFF7AEFA6D
:100DC0000399FFF7ABFA2946FFF750FA3546A842D8
:100DD00003D23D46A84200DC054621460198FFF7B4
:100DE00045FA044629460098FFF740FA03461C4896
:100DF0001C49844201D3024604E08C4201DD0A46CC
:100E000000E02246834204D28B4201DD084600E026
:100E1000184605460D48564624300168446881F05E
:100E20000043CDE900A9A0F57971039803F044FDD2
:100E3000CDE900692A4623460B49039803F03CFD9F
:100E400005B0BDE8F08F00003802002030350020EA
:100E5000000020410000A040000080BFCDCC4C3EEF
:100E60000000C8C10000C841303200202DE9F04127
:100E70000024134E2746E1B2032005F0D1FD0225E0
:100E800037700321342005F0D9FD052000F020FC47
:100E9000307838B121460BA006F094F8BDE8F04157
:100EA00003F02EBE6D1EEBD1641C7F2CE3DB0BA088
:100EB00006F088F8BDE8F0410EA006F083B8000007
:100EC0006802002066696E64202530325820616413
:100ED00064722073656E736F720D0A0063616E2019
:100EE0006E6F742066696E642073656E736F720D29
:100EF0000A000000706C6561736520636865636B50
:100F000020796F757220636F6E6E656374696F6EA2
:100F10000D0A0000FEE70020704700207047000027
:100F200010B500220449054804F08EFA044903482C
:100F300004F084FA002010BD0C280020481F002077
:100F40000C24002010B50146034804F077FA02484B
:100F500004F058FA002010BD481F00202DE9F05F72
:100F600004460AA8884690E8200C3C481E461746CE
:100F70000121DDF83490006806F092FE002867D168
:100F800037488CB1B0F858102180B0F85A10618001
:100F9000B0F85C10A180B0F85E10E180B0F860108D
:100FA0002181B0F862106181B8F1000F08D0426E63
:100FB000C8F80020826EC8F80420C26EC8F8082065
:100FC0002FB1016F3960416F7960816FB9603EB1B7
:100FD000C16F3160D0F880107160D0F88410B160BA
:100FE000BBF1000F0CD0002100EB4102B2F8F03051
:100FF0000BEB4102491CC9B2A2F868300C29F3D3AB
:101000005DB1416869608168A960C168E960C169D2
:10101000E961016A2962416A6962BAF1000F08D088
:10102000026CCAF80020426CCAF80420426DCAF86B
:101030001420B9F1000F0BD0D0F8A821C9F8002076
:10104000B0F8AC21A9F80420B0F8AE11A9F8061048
:1010500002480068BDE8F05F06F098BE1800002066
:10106000883600202DE9F05F04460AA8884690E8FB
:10107000200C3C481E4617460221DDF834900068DB
:1010800006F00EFE002867D137488CB12188A0F801
:1010900058106188A0F85A10A188A0F85C10E18867
:1010A000A0F85E102189A0F860106189A0F8621094
:1010B000B8F1000F08D0D8F800104166D8F8041035
:1010C0008166D8F80810C1662FB139680167796860
:1010D0004167B96881673EB13168C1677168C0F81E
:1010E0008010B168C0F88410BBF1000F0CD0002153
:1010F0000BEB410200EB4103491CB2F86820C9B276
:10110000A3F8F0200C29F3D35DB169684160A968A8
:101110008160E968C160E969C161296A0162696A3F
:101120004162BAF1000F08D0DAF800100164DAF871
:1011300004104164DAF810100165B9F1000F0BD00A
:10114000D9F80010C0F8A811B9F80410A0F8AC1133
:10115000B9F80610A0F8AE1102480068BDE8F05FCB
:1011600006F014BE18000020883600207FB51B480A
:101170000021A0F15805A0F1180200950390CDE9D7
:101180000121A0F17C03A0F16401583A8838FFF7EF
:10119000E5FE134E05F14002A2F17001304605F064
:1011A0000BFD02F06FFD04460146304602F080FD63
:1011B00021463046FFF78EFD21463046FFF710FDF1
:1011C00022463046696AFFF7B9FC22463046696A12
:1011D000FFF74EFCBDE87F4003F0B4B8B8350020FF
:1011E0006F12033B10B50023104A15E0362809D0D2
:1011F00039280BD03C2812D014783F2813D044F063
:10120000800406E0147844F0010402E0147844F00D
:1012100002041470401C5B1C8B42E7D310BD147891
:1012200044F00804F5E744F00404F2E76802002003
:10123000014800F0EBB800000C040020704700F0FB
:1012400047BA802000F07CBA72B6FEE710B5502194
:10125000032005F0E5FB0849084805F0D3FB0848E2
:1012600005F09CFC074805F0C3FB074805F0AAFE03
:10127000BDE81040FFF7FABD913B0008FB3B0008BA
:10128000E51100083F120008BCA10008012006F08B
:10129000EFFBFBE710B590F821100022022905D0E2
:1012A0000421816380F82020012010BD01680B68B3
:1012B00023F00E030B6001680B6823F001030B6041
:1012C00090F84030C46B012101FA03F3636080F8A9
:1012D000211080F82020104610BD00002DE9F05F9D
:1012E00090F821100024022903D0042181630124F5
:1012F00085E001680A6822F00E020A6001680A6847
:1013000022F001020A603F4E3E4FB215DFF8F4C0F2
:10131000DFF8F090DFF8ECA0DFF8E8B0DFF8E4E009
:101320000168783F13011502ACF1640CA9F1500972
:10133000AAF13C0AABF1280BAEF1140E4FF4801861
:10134000B14227D9B9420ED0614512D049451DD0CE
:10135000514518D0594518D0714501D1424615E084
:10136000294EB14201D1012210E0274E1436B1427C
:1013700001D110220AE0244E2836B14206D0224A7A
:101380003C32914201D11A4600E02A461E49091F0B
:101390000A602BE0B94213D0614517D0494522D0ED
:1013A00051451DD059451DD0714501D142461AE025
:1013B000B14202D14FF0807215E0134EB14201D11B
:1013C000012210E0104E1436B14201D110220AE081
:1013D0000D4E2836B14206D00B4A3C32914201D123
:1013E0001A4600E02A46074980394A60012180F800
:1013F0002110002180F82010416B01B18847204660
:10140000BDE8F09F80000240080402402DE9F05F33
:10141000C16B0A6801680B68046C4FF0040808FA95
:1014200004F8844D844E854FDFF814C2DFF814921F
:10143000DFF814A2DFF814B2DFF814E218EA020FA2
:1014400065D05FEA437862D50A68920603D40A68D9
:1014500022F004020A60DFF8F0814FF48062016834
:1014600008F1140813011402414524D9A9420DD0F2
:10147000B1420FD0B9421AD0614515D0494515D0B7
:10148000514501D1120312E0594501D104220EE069
:10149000714501D140220AE06D4D1435A94206D0B4
:1014A0006B4A2832914201D11A4600E02246674930
:1014B000091F0A6029E0A94213D0B14215D0B942F0
:1014C00020D061451BD049451BD0514502D14FF476
:1014D000800217E0414502D14FF0806212E0594589
:1014E00001D104220EE0714501D140220AE0584D9D
:1014F0001435A94206D0564A2832914201D11A46E3
:1015000000E022464B4908394A60C16A71E04FF059
:10151000020808FA04F818EA020F70D05FEA83782C
:101520006DD50A68920606D40A6822F00A020A609B
:10153000012180F82110DFF810814FF4007201685A
:1015400008F1140813011402414524D9A9420DD011
:10155000B1420FD0B9421AD0614515D0494515D0D6
:10156000514501D1120312E0594501D102220EE08A
:10157000714501D120220AE0354D1435A94206D02B
:10158000334A2832914201D11A4600E022462F49BF
:10159000091F0A6029E0A94213D0B14215D0B9420F
:1015A00020D061451BD049451BD0514502D14FF495
:1015B000001217E0414502D14FF0007212E0594588
:1015C00001D102220EE0714501D120220AE0204D16
:1015D0001435A94206D01E4A2832914201D11A463A
:1015E00000E02246134908394A60002180F82010A3
:1015F000816A00291CD0BDE8F05F0847FFE7082595
:10160000A540154214D01A0712D50A6822F00E021E
:101610000A6090F84020C36B012101FA02F25A607F
:10162000816380F82110002180F82010016BE0E731
:10163000BDE8F09F080002401C000240300002405C
:1016400044000240580002406C000240080402407E
:101650001C04024030B560B11A4B026814219A4252
:1016600009D2194B1344B3FBF1F189000164174906
:101670000AE0012030BD134B5B421344B3FBF1F190
:10168000890001640F490839C163022180F82110E3
:10169000136843F6F0718B43F0E901142143D0E95C
:1016A00002452C4321430469214344692143846951
:1016B00021431943116000214163012242770177E0
:1016C000084630BD08040240F8FFFDBF000002409C
:1016D00070B5044600F046F90546601C02D0044887
:1016E0000078044400F03EF9401BA042FAD370BDDC
:1016F0003C00002010B580281BD10E4B19680E4805
:10170000002241601A604388012B0BD103880B4CE7
:101710005B1C9BB204EB4304038024F8021C082BDF
:1017200000D3428040F60203994202D30121418056
:10173000028010BD2408004070020020783800208C
:10174000044910B50A68024202D00860FFF7D2FFD0
:1017500010BD0000140401402DE9F84FDFF8C891D6
:10176000002409F1040A0AF1040B23460F270BF1A8
:10177000040ED1E00125A54006EA0502AA4276D171
:10178000DFF8A8C14E68A6EB0C0866452BD00DDC2F
:10179000032E34D005DC36B3012E19D0022E2FD102
:1017A0001BE0112E16D0122E2AD119E0B8F5881F91
:1017B00019D006DCB8F5803F15D0B8F5801F1FD1D1
:1017C00011E0B8F5001F0ED0B8F5041F18D10AE0DB
:1017D000CB6815E0CB681B1D12E0CB6808330FE027
:1017E000CB680C330CE08B682BB1012B4FF0080356
:1017F00003D0456104E0042302E0056100E000231A
:10180000FF2A01D8064601E000F104064FEA8405EC
:1018100001D9A5F12005D6F8008007FA05FC28EAD1
:101820000C0803FA05F548EA0508C6F800804D687B
:10183000ED0070D53E4DAE6946F00106AE61AD6972
:1018400024F0030605F0010500953A4D06EB050C62
:10185000DCF80850A607360F07FA06F825EA08054F
:10186000DFF8D480404503D14FF0000825E052E076
:10187000DFF8C880404502D14FF001081DE0DFF8D5
:10188000C080404502D14FF0020816E0DFF8B48076
:10189000404502D14FF003080FE0DFF8AC8040452F
:1018A00002D14FF0040808E0DFF8A080404502D1E3
:1018B0004FF0050801E04FF0060808FA06F848EA7C
:1018C0000508CCF808804D68D9F80060ED034D4656
:1018D00001D5164300E096432E604D68DAF80060AB
:1018E000AD03554601D5164300E096432E604D6882
:1018F000DBF80060ED025D4601D5164300E096433B
:101900002E604D68DEF80060AD02754601D51643C5
:1019100000E096432E60641C0A681646E2407FF49D
:1019200029AFBDE8F88F000000040140000011104D
:10193000001002400000014000080140000C01407E
:10194000001001400014014000180140001C01403B
:101950008068084000D0012070470AB101617047DB
:101960000904FBE701488068704700003C00002044
:101970000248816802781144816070473C00002071
:10198000074810B5016841F010010160032000F024
:10199000A7F80F2000F006F800F050F8002010BD66
:1019A0000020024030B505461F4887B0C16941F0AC
:1019B0001001C161C06906A900F01000009001A8E3
:1019C00000F07AFE0498B0B100F096FE400017498E
:1019D000174AB0FBF1F11748491E0260416040F21E
:1019E000E7320021C0E903218160816101F0D4F870
:1019F000040003D015E000F07FFEE8E70D4801F099
:101A00009DF904000DD1362000F03CF8102D07D2CE
:101A100000222946362000F043F80748056000E020
:101A2000012407B0204630BD0010024040420F00A4
:101A3000001000402C060020400000200F4808B590
:101A4000816941F001018161816901F00101009129
:101A5000C16941F08051C161C069002200F080502D
:101A600000900F21901E00F01BF80548416821F0FE
:101A7000E06141F00071416008BD000000100240CB
:101A800000000140002809DB00F01F020121914005
:101A90004009800000F1E020C0F80011704700000C
:101AA000F0B40E4B1B680C46C3F30223C3F10705C9
:101AB000042D00D90425191D072901D2002300E0B7
:101AC000DB1E012606FA05F1491E214099409E4081
:101AD000761E16403143F0BC05F09ABA0CED00E0DA
:101AE000064900F0070208684FF6FF03184040EA75
:101AF0000220034A10430860704700000CED00E02C
:101B00000000FA0510B50C0607D501F0070101EB3E
:101B1000810100EBC100283005E001EB810100EB01
:101B2000C10000F5B47099B232B101220273018193
:101B3000190C4181002010BD00220273C180F9E719
:101B4000704701EB810200EBC202D0F8E802D26BD1
:101B500003F06BBE01EB810200EBC202D0F8E80299
:101B6000D2F87C2103F0C4BE70B504460B0601F028
:101B7000070000EB800104EBC1014FF001024FF0C0
:101B8000000503D581F82920283103E081F8695147
:101B900001F5B471087094F8A802012808D084F8FF
:101BA000A822206804F0E4FA84F8A852002070BD4E
:101BB000022070BD70B5044601F00F0062689042CB
:101BC00001D9012070BD0B0601F0070000EB800178
:101BD00004EBC1014FF001024FF0000503D581F87D
:101BE0002920283103E081F8695101F5B4718D7025
:101BF000087094F8A802012808D084F8A822206868
:101C000004F053FB84F8A852002070BD022070BD80
:101C10002DE9F05F04685FEA424C0B788D69B4F8F7
:101C200050C04FF000064BF68F7948F2800A48F614
:101C30008F7B48F2C00E4FF480672AD54FF0020820
:101C400008EBC308C44407EB4C07E45BC4F3090486
:101C5000A54203D32D1B8D6101D00BE08E61066878
:101C600036F8235005EA090585F4005545EA0A05CA
:101C700026F82350520609D50D78036833F825203D
:101C800002EA0B0242EA0E0223F8252084B30A89F5
:101C900029E04FF0060808EBC308C44407EB4C07E3
:101CA000E45BC4F30904A54203D32D1B8D6101D06D
:101CB0000BE08E61066836F8235005EA090585F4C5
:101CC000005545EA0A0526F82350520609D40B7838
:101CD000056835F8232002EA0B0242EA0E0225F8D5
:101CE00023202CB14A8949690068234604F04CFE40
:101CF0002046BDE8F09F2DE9F05F054600680C46E0
:101D00005FEA426C16468B692278B0F850C048F6FC
:101D10008F774CF280094FF6FF7B4FF4004E4FF463
:101D2000806A4FF000017BD54FF0020808EBC20833
:101D3000E0440AEB480C30F80C00C0F30900834281
:101D400011D91B1AA3610FD0730407D52E6836F87A
:101D500022303B4043EA090326F8223094F824203D
:101D6000012A50D04EE1A161607810B1012813D052
:101D70001AE02868B0F85030184400EB0210B0F8B0
:101D8000042422F4F842A0F80424B0F8042442F415
:101D90000042A0F8042407E02868B0F85030184446
:101DA00000EB0210A0F804146278286812B1012A2E
:101DB00011D018E0B0F850100844217800EB011061
:101DC000B0F80C1421F4F841A0F80C14B0F80C147D
:101DD00041F4004105E0B0F850201044227800EBB7
:101DE0000210A0F80C1421782846FFF7AAFE700410
:101DF000B8D521782A6832F82100384040EA090035
:101E000022F82100FEE0626902446261E269024454
:101E1000E2612369226A9A4203D31846111A04E048
:101E200038E084F824100AB110462162617811B1BB
:101E3000012923D02BE02968B1F8502011442278E1
:101E400001EB021101F2044148B13E280FD84208CB
:101E5000C30700D0521C0BEA82220A8017E00A88CE
:101E600022F4F8420A800A8842F40042F5E7420967
:101E7000C30600D1521E4EEA8222EEE72968B1F86D
:101E800050201144227801EB0211A1F8040483B21E
:101E90002289B3E04FF0060808EBC208E0440AEBE1
:101EA000480C30F80C00C0F30900834211D31B1A10
:101EB000A3610FD0730407D42E6836F822303B405C
:101EC00043EA090326F8223094F82420012A50D04E
:101ED00098E0A161607810B1012813D01AE0286859
:101EE000B0F85030184400EB0210B0F8042422F48B
:101EF000F842A0F80424B0F8042442F40042A0F808
:101F0000042407E02868B0F85030184400EB0210B1
:101F1000A0F804146278286812B1012A11D018E0E0
:101F2000B0F850100844217800EB0110B0F80C1400
:101F300021F4F841A0F80C14B0F80C1441F400415D
:101F400005E0B0F850201044227800EB0210A0F811
:101F50000C1421782846FFF7F4FD700452D422783F
:101F6000296831F82200384040EA090021F82200AF
:101F700048E0626902446261E2690244E261236905
:101F8000226A9A4203D31846111A216204E00AB168
:101F90001046216284F824106278296812B1012A5F
:101FA00022D029E0B1F850201144227801EB02112F
:101FB00001F20C4148B13E280FD84208C30700D0B7
:101FC000521C0BEA82220A8016E00A8822F4F842A8
:101FD0000A800A8842F40042F5E74209C30600D1AC
:101FE000521E4EEA8222EEE7B1F8502011442278C8
:101FF00001EB0211A1F80C04628983B261692868BF
:1020000004F0E0FC21782A6832F8210048F6BF731A
:10201000184080F0300048F28003184322F8210075
:102020000020BDE8F09F01F0070101EB810100EB0A
:10203000C100D0F8840170472DE9F04104460F0635
:1020400001F0070000EB800104EBC1014FF0010635
:102050004FF0000503D581F82960283103E081F8AD
:10206000695101F5B47108700A61CB704A7802B108
:10207000C881022B00D10D7194F8A802012809D063
:1020800084F8A862206803F045FF284684F8A85227
:10209000BDE8F0810220FBE770B50C4601F00705B2
:1020A00005EB850100EBC101C1E95F230022C1F806
:1020B000842181F8692181F8685101F5B4716207C2
:1020C000006804F047F9002070BD70B504460D4665
:1020D00001F007006168884201D9012070BD29061E
:1020E0004FF000064FF0010207D500EB800104EB32
:1020F000C10181F82920283107E005EB850104EBB7
:10210000C10181F8696101F5B4718A70087094F8B1
:10211000A802012807D084F8A822206804F001F959
:10212000680702D006E0022070BD04F52C7120681B
:1021300004F0B9F884F8A862002070BD70B50C46B0
:1021400001F0070505EB850100EBC101C1E90F2393
:10215000012281F84C208B6400234B6481F82920F4
:1021600001F8285F6207006804F0F4F8002070BDF1
:102170001FB50446006804F003FC000402D52046A5
:1021800002F010FA206804F0FBFB40050CD5206833
:1021900030F8441F21F480610180204600F01EF9D0
:1021A0000021204600F035F9206804F0E9FB4004E6
:1021B00005D5206830F8441F21F480410180206853
:1021C00004F0DEFB800405D5206830F8441F21F4BC
:1021D00000510180206804F0D3FBC00414D52068AE
:1021E00030F8401F21F004010180206830F8401FC2
:1021F00021F008010180204600F003F9206830F842
:10220000441F21F480510180206804F0B9FB0005CF
:102210003ED522680020694632F8203021F810307F
:10222000401CC0B20828F7D332F8400F40F001003C
:102230001080206830F8402F22F0010202802068D0
:10224000B0F844205205FBD530F8442F22F48062C8
:1022500002800020236831F8102023F82020401C41
:10226000C0B20828F6D3206830F8401F41F00801BA
:102270000180206830F8441F21F40061018020684B
:1022800030F8401F41F004010180204600F0F6F8CC
:10229000206804F075FB800508D5206830F8441FDD
:1022A00021F400710180204600F0AFF8206804F0AE
:1022B00067FBC00505D5206830F8441F21F4807104
:1022C00001801FBD2DE9F04186B0040004D094F8D0
:1022D000A902002520B108E0012006B0BDE8F08188
:1022E00084F8A852204600F05BF8032084F8A90285
:1022F000206803F0D1FF04F11001142288466846DB
:10230000FDF790FF94E80F0003F030FF0226D0BBEA
:102310000021206804F04EFB002001270FE000BFE1
:1023200000EB800104EBC10181F8297001F8280F4E
:10233000C881CD700D614D61401CC0B28D61616876
:102340008142EDD8002011E000EB800104EBC101D7
:1023500081F8695181F8680181F86B51C1F87851B1
:10236000C1F87C51401CC0B2C1F880516168814203
:10237000EAD8142241466846FDF754FF94E80F005E
:1023800003F081FF10B184F8A962A5E784F8245016
:1023900084F8A972206803F074FF00209DE7000014
:1023A00008B500680B49884212D10B48C16941F455
:1023B0000001C161C069002200F400000090052105
:1023C0001420FFF76DFBBDE808401420FFF75ABB4F
:1023D00008BD0000005C00400010024070B50446DB
:1023E00080680125022801D0FEF72EFF2946D4F887
:1023F000E80203F066FBD4F8E802BDE8704003F0A1
:1024000022BBD0F8E80203F046BBD0F8E80203F0A4
:102410004CBB10B5044690F8A80201280BD001204F
:1024200084F8A80284F82410206804F0C5FA00207B
:1024300084F8A80210BD022010BDD0F8E82200F5F3
:102440002C71104603F049BB10B5044690F8A80261
:10245000012810D0012084F8A802206804F080FA36
:1024600001212046FFF76CFB206803F008FF0020E5
:1024700084F8A80210BD022010BD000010B504466B
:10248000D0F8E80203F068FBA069002804D00348F4
:10249000016841F00601016010BD000010ED00E090
:1024A0002DE9F84305460078354CC00754D0E06963
:1024B0000026C00008D4E06940F08050E061E06987
:1024C000012600F0805000902E480168C90512D402
:1024D0000168804641F480710160FFF743FA0746C6
:1024E00005E000BFFFF73EFAC01B642823D8D8F8E8
:1024F0000000C005F6D5206A10F4407021D0A988EC
:1025000001F4407181421CD0206A1F49012220F44D
:1025100040700A6000220A602062C00711D0FFF7F5
:1025200021FA074641F2883808E000BFFFF71AFA9F
:10253000C11B414502D90320BDE8F883206A80070A
:10254000F4D5206A696820F44070084320621EB107
:10255000E06920F08050E0612878800705D5606848
:10256000A96820F44040084360602878C00605D57B
:102570006068696920F48000084360600020DBE740
:102580000010024000700040400442422DE9F04734
:102590000F46050061D0434E306800F00700B84296
:1025A00009D2306820F0070038433060306800F00E
:1025B0000700B84251D128683B4C810712D540072B
:1025C00003D5606840F4E06060602878000703D5B8
:1025D000606840F4605060606068A96820F0F000B6
:1025E000084360602878C00728D06868012810D0A8
:1025F0002168022810D0890700292EDA616821F0AD
:10260000030101436160FFF7ADF9804641F288396B
:102610000DE021688903EFE78901EDE7FFF7A2F9F3
:10262000A0EB0801494502D90320BDE8F0876068A6
:10263000696800F00C00B0EB810FEFD1306800F05A
:102640000700B8420BD9306820F0070038433060EB
:10265000306800F00700B84201D00120E5E7287893
:10266000400705D56068E96820F4E06008436060D1
:102670002878000706D56068296920F4605040EA90
:10268000C100606000F058F86168084AC1F30311A6
:10269000515CC8400649086006480068FFF782F9A7
:1026A0000020C2E70020024000100240A89E00085F
:1026B00048000020400000200F2202600C4A5368AE
:1026C00003F003034360536803F0F003836053682F
:1026D00003F4E063C36052684FF4E06303EAD2029C
:1026E00002610448006800F00700086070470000BD
:1026F0000010024000200240044805490068496873
:10270000044AC1F30221515CC840704748000020D0
:1027100000100240B89E0008044805490068496856
:10272000044AC1F3C221515CC840704748000020F0
:1027300000100240B89E000812A185B00FC98DE8B4
:102740000F0014A0144A006804905168134801F067
:102750000C03042B10D0082B0ED1C1F38343C90303
:102760001DF803000AD5516804AAC1F34041515C29
:102770000A4A5043B0FBF1F005B07047084948439E
:10278000FAE7000002030405060708090A0B0C0D0E
:102790000E0F1010010200000010024000127A001B
:1027A00000093D002DE9F84F040070D02078C04D9D
:1027B000C00749D06868C0F38100012807D0686865
:1027C000C0F38100022809D16868C00306D52868D3
:1027D000800339D560680028E7D035E06068B0F53F
:1027E000803F0BD010B1B0F5A02F11D0286820F495
:1027F00080302860286820F4802002E0286840F4B7
:1028000080302860606890B1FFF7ACF806460AE0B7
:10281000286840F480202860F0E700BFFFF7A2F8A6
:10282000801B642873D828688003F7D50CE0FFF775
:1028300099F8064605E000BFFFF794F8801B64286E
:10284000F0D828688003F7D420789A4E80074FF09C
:1028500001094FF0000839D5686810F00C0F07D057
:102860006868C0F38100022809D16868C00306D4F3
:102870002868800714D52069012808D110E0206954
:10288000B0B1C6F80090FFF76DF8074605E00AE121
:10289000FFF768F8C01B0228C4D828688007F7D55E
:1028A0002868616920F0F80040EAC10028600DE066
:1028B000C6F80080FFF756F8074604E0FFF752F825
:1028C000C01B022823D828688007F7D42078000787
:1028D0002CD57948A169D9B1C0F80090FFF742F82A
:1028E000074604E0FFF73EF8C01B02280FD8686ACD
:1028F0008007F7D571484FF4FA510068B0FBF1F04A
:10290000009000BF0098411E0091FAD20EE080E0D6
:10291000C0F80080FFF726F8074604E0FFF722F82A
:10292000C01B022875D8686A8007F7D42078400752
:1029300060D5E8690027C00008D4E86940F08050FD
:10294000E861E869012700F0805000905C48016868
:10295000C90513D40168834641F480710160FFF713
:1029600001F8824606E000BFFEF7FCFFA0EB0A007C
:1029700064284ED8DBF80000C005F5D5E0680128D2
:102980000AD008B1052813D0286A20F00100286277
:10299000286A20F0040002E0286A40F00100286262
:1029A000E06841F2883B98B1FEF7DCFF82460BE01D
:1029B000286A40F004002862EEE700BFFEF7D2FF6D
:1029C000A0EB0A0159455AD8286A8007F6D50CE0D1
:1029D000FEF7C8FF824605E0FEF7C4FFA0EB0A0140
:1029E00059454CD8286A8007F6D41FB1E86920F011
:1029F0008050E861E06988B36968C1F38101022908
:102A000044D00228C6F8608004D0FEF7ABFF04462D
:102A100038E034E0FEF7A6FF074604E0FEF7A2FF29
:102A2000C01B02282BD828688001F7D4206AB0F593
:102A3000803F05D16868A16820F4003008436860D1
:102A4000D4E908010843696821F4741108436860F7
:102A5000C6F86090FEF786FF044606E025E000BF5A
:102A6000FEF780FF001B022809D828688001F7D5EF
:102A70001BE000BFFEF776FF001B022802D90320EF
:102A8000BDE8F88F28688001F4D40EE00128F7D063
:102A90006868226A00F48031914204D1616A00F4CE
:102AA0007010884201D00120EAE70020E8E700002A
:102AB00000100240000042428004424248000020D0
:102AC000007000407047704710B590F83C20012A14
:102AD00022D0012280F83C20CA688C6822F440721F
:102AE00022434C6822F4806222430C6822F4006284
:102AF00022430C6922F4805222434C6922F4005292
:102B00002243C969002322F480420A4301684A64CF
:102B100080F83C30002010BD022010BD70B590F848
:102B20003C20012A2CD0012480F83C40022280F86D
:102B30003D2003685A689D6822F070060A68324397
:102B40005A60104B02689A420ED00F4B9A420BD03B
:102B5000B2F1804F08D00D4B9A4205D00C4B9A42EF
:102B600002D00C4B9A4204D1496825F080031943E6
:102B7000916080F83D40002180F83C10084670BD0F
:102B8000022070BD002C01400034014000040040D0
:102B900000080040000C004010B5040003D094F879
:102BA0003D0010B107E0012010BD002084F83C007A
:102BB000204600F01FF8022084F83D00211D206807
:102BC00002F0B4F8012084F8460084F83E0084F84E
:102BD0003F0084F8400084F8410084F8420084F803
:102BE000430084F8440084F8450084F83D00002048
:102BF00010BD000038B5054600682F4A2F499042A5
:102C000007D1C86940F00200C861C86900F002003D
:102C100009E02B4A904208D1C86940F00400C8611D
:102C2000C86900F00400009038BD264A904211D1D6
:102C3000C86940F00800C861C869002200F00800B7
:102C4000009007213220FEF72BFFBDE838403220EC
:102C5000FEF718BF1C4A904207D1C86940F0200017
:102C6000C861C86900F02000DDE7184A9042DBD156
:102C7000886940F4005088618869164C00F400505F
:102C80000090134820601020606000208021C4E97B
:102C9000020149002161890061612021C4E9061017
:102CA0002046FEF7D7FC08B1FEF7CEFA2C63AC63E2
:102CB0006C63656238BD00000004004000100240F3
:102CC00000080040000C00400014004000340140A7
:102CD0001C0402400C04002090F83D10012901D092
:102CE00001207047022180F83D1000680E4988429B
:102CF0000ED00E4988420BD0B0F1804F08D00C495D
:102D0000884205D00B49884202D00B49884204D141
:102D1000816801F00701062903D0016841F0010133
:102D20000160002070470000002C01400034014089
:102D30000004004000080040000C004090F83D10E6
:102D4000012901D001207047022180F83D1001685F
:102D5000CA6842F00102CA6000680E4988420ED07B
:102D60000D4988420BD0B0F1804F08D00B49884202
:102D700005D00B49884202D00A49884204D18168B3
:102D800001F00701062903D0016841F0010101604B
:102D900000207047002C0140003401400004004036
:102DA00000080040000C004070B5044690F83C005C
:102DB000012817D0012584F83C50022084F83D00FA
:102DC0002068826822F0770222F47F4282600868DD
:102DD000502830D00DDC20284DD005DC98B31028C9
:102DE0003BD148E0022070BD302844D0402834D187
:102DF00039E0602828D0702806D0B0F5805F2CD04C
:102E0000B0F5005F29D10AE0CB68D1E90121206843
:102E100001F0DFFF2068816841F0770109E0CB68AD
:102E2000D1E90121206801F0D4FF2068816841F4D4
:102E30008041816011E0CA684968206802F09EF80C
:102E40005021206807E016E0CA684968206802F04F
:102E5000A6F86021206801F0C6FF84F83D500020EC
:102E600084F83C0070BDCA684968206802F086F8A2
:102E700040212068EFE7226801461046EBE77047E3
:102E800070B50446006801694FF00005C943890721
:102E900015D4C168C943890711D4E91E0161012015
:102EA0002077206880698007204602D0FFF7E7FF7F
:102EB00004E000F0E7F8204600F076F92577206876
:102EC0000169C943490717D4C168C943490713D4E5
:102ED0006FF004010161022020772068806910F4FE
:102EE000407F204602D0FFF7CAFF04E000F0CAF896
:102EF000204600F059F9257720680169C943090780
:102F000016D4C168C943090712D46FF008010161E2
:102F1000042020772068C0698007204602D0FFF790
:102F2000AEFF04E000F0AEF8204600F03DF9257752
:102F300020680169C943C90617D4C168C943C906D5
:102F400013D46FF010010161082020772068C06958
:102F500010F4407F204602D0FFF791FF04E000F01C
:102F600091F8204600F020F9257720680169C943CF
:102F7000C90708D1C168C943C90704D1891E0161C5
:102F8000204600F0DBF920680169C943090609D42D
:102F9000C168C943090605D46FF08001016120466C
:102FA000FFF790FD20680169C943490609D4C1684B
:102FB000C943490605D46FF040010161204600F085
:102FC000C7F920680169C94389060BD4C168C943A0
:102FD000890607D46FF0200101612046BDE87040EA
:102FE000FFF771BD70BD000010B586B000210091E3
:102FF0000191029103911D4A01681D4802249142EA
:103000001ED1816941F004018161816901F00401EF
:103010000491816941F0080181618069694600F08D
:1030200008000490C020CDE9000412480394FEF784
:1030300093FB0320CDE9000469460F48039410E098
:103040000E4A91420FD1816941F01001816180697E
:10305000694600F0100004905015CDE900040848BE
:103060000394FEF779FB06B010BD00000004004099
:103070000010024000080140000C014000340140F3
:1030800000100140704770B5044690F83C000D46B2
:1030900001280AD0012084F83C0042B1042A18D04B
:1030A000082A2AD00C2A4DD139E0022070BD2068B0
:1030B00001F0A2FE2068816941F008018161206869
:1030C000816921F004018161206881692A691143C5
:1030D00011E0206801F0C0FE2068816941F40061C0
:1030E00081612068816921F4806181612068816942
:1030F0002A6941EA0221816124E0206801F0E2FEB0
:103100002068C16941F00801C1612068C16921F0EE
:103110000401C1612068C1692A69114311E0206876
:1031200001F004FF2068C16941F40061C1612068B9
:10313000C16921F48061C1612068C1692A6941EADD
:103140000221C161002084F83C0070BD10B504006C
:1031500003D094F83D0010B107E0012010BD00201D
:1031600084F83C00204600F01EF8022084F83D0060
:10317000211D206801F0DAFD012084F8460084F862
:103180003E0084F83F0084F8400084F8410084F851
:10319000420084F8430084F8440084F8450084F831
:1031A0003D00002010BD7047054A0168914206D1DC
:1031B000007F082803D10C21024800F05FB8704757
:1031C00000340140C403002010B50446022249B176
:1031D00004290ED0082913D094F84100012816D0F4
:1031E000012010BD94F83E000128F9D184F83E205A
:1031F0000FE094F83F000128F2D184F83F2008E066
:1032000094F840000128EBD184F8402001E084F8D4
:1032100041200122206801F0CFFD13492068134AA4
:10322000884201D0904203D1436C43F4004343648D
:10323000206888420DD090420BD0B0F1804F08D06A
:103240000B49884205D00B49884202D00A4988427E
:1032500004D1816801F00701062903D0016841F01B
:1032600001010160002010BD002C0140003401402C
:103270000004004000080040000C004070B5044607
:1032800000680D0006D0042D0AD0082D3DD00C2D6D
:103290000DD140E0C16821F40071C160606A04E0B2
:1032A000C16821F48061C160A06AFEF717F80022AE
:1032B0002946206801F080FD1E4B41F21111206863
:1032C0008A10984202D01C4B984209D1036A0B42E3
:1032D00006D1036A134203D1436C23F400434364D1
:1032E0002068036A0B4206D1016A114203D10168CA
:1032F00021F00101016001209DB1042D14D0082DA1
:1033000015D084F84100002070BDC16821F400612F
:10331000C160E06AC9E7C16821F48051C160206BD7
:10332000C3E784F83E00EEE784F83F00EBE784F85B
:103330004000E8E7002C01400034014000680349E8
:10334000884201D1FEF714BB704700000010004016
:103350007047704770470000F8B50268044610686F
:10336000D168536910F00F0F4FF0000553D003F0F0
:10337000010601F4907737435FD0C20705D0CA0534
:1033800003D5226C42F001022264420705D5DA0718
:1033900003D0226C42F002022264820705D5DA07CC
:1033A00003D0226C42F004022264020707D501F028
:1033B0002002324303D0226C42F008022264226CC5
:1033C000002A34D0800604D5880602D5204601F0B4
:1033D00031FE20684069216CC0F38010090700D4D9
:1033E00030B3204601F00EFE2068416949061BD526
:1033F000416921F040014161A06BA8B15849416386
:10340000A06BFDF76BFF002811D0A06B416B01B0E2
:10341000BDE8F040084783060FD58B060DD5204642
:10342000BDE8F84001F006BE2046FFF793FFF8BD67
:103430002046FFF78FFF2564F8BD266B2023012E61
:1034400052D1C60650D5CE064ED5106850680090B1
:10345000506940062AD5A16B086840680004000C3A
:10346000EAD0A68D8642E7D9E0858869202818D061
:10347000D06820F48070D0602068416921F001019B
:1034800041612068416921F04001416184F83E308A
:1034900025632068C16821F01001C160A06BFDF7B1
:1034A000F9FEA08DE18D401A81B219E0A08DE18D69
:1034B000401A81B2E08D0028BED00029BCD0D0686F
:1034C00020F49070D0602068426922F001024261CD
:1034D00084F83E3025632068C26822F01002C26082
:1034E0002046FFF736FFF8BD05062BD50D0629D57A
:1034F00094F83D002128F6D1A068B0F5805F01D195
:103500002069B0B1206A411C2162216800784860BE
:10351000E08C401E0004000CE084E4D12068C16807
:1035200021F08001C1602068C16841F04001C160A4
:10353000F8BD206A0088C0F308005060206A801C33
:103540002062E5E74006F3D54806F1D5D16820466C
:1035500021F04001D16084F83D3000F0D6F9F8BD8B
:10356000F54F000870B5040004D094F83D00002524
:1035700010B106E0012070BD84F83C50204600F0F8
:1035800023F8242084F83D002068C16821F400510C
:10359000C160204601F0AAFD2068016921F4904134
:1035A00001612068416921F02A0141612068C168F8
:1035B00041F40051C1602564202084F83D0084F866
:1035C0003E00002070BD0000F0B585B000240094DE
:1035D000019402940394D0F800C0714971486F4F70
:1035E0000D1502220323C614BC4524D1CF6947F42C
:1035F0000027CF61CF6907F4002704978F6947F050
:1036000010078F61896901F01001CDE90331CDE91F
:10361000005269460546FEF79FF8CDE90064694609
:1036200028460294FEF798F8002206213420FEF77F
:1036300037FA342030E0DFF870E10427F4452FD169
:10364000CD6945F48015CD61CD6905F480150495EB
:103650008D6945F010058D618D6905F010050495A3
:103660008D6945F020058D618969039301F0200182
:103670000491B902CDE900126946FEF76DF8CDE973
:103680000074694649480294FEF766F80022062154
:103690003520FEF705FA3520FEF7F4F905B0F0BD48
:1036A000DFF80CE14348F44525D18E6946F48046A5
:1036B0008E618E6906F4804604968E6946F0040693
:1036C0008E618969039301F0040104914115CDE9EC
:1036D000001269460646FEF73FF8CDE900546946F8
:1036E00030460294FEF738F8002205212520FEF727
:1036F000D7F92520D0E7DFF8C0E0F44525D1CD6922
:1037000045F40035CD61CD6905F4003504958D692A
:1037100045F004058D618969054601F00401CDE994
:103720000331CDE900726946FEF716F80820CDE9AD
:103730000004694628460294FEF70EF8002206218E
:103740002620FEF7ADF92620A6E71C488445A5D122
:10375000C86940F48020C861C86900F480200490E2
:10376000886940F0080088618869CDE9005200F05E
:103770000800CDE90330124D69462846FDF7ECFFFD
:10378000CDE90064694628460294FDF7E5FF002272
:1037900006212720FEF784F927207DE7004C004012
:1037A0000010024000100140005000400014014091
:1037B000003801400008014000440040004800403B
:1037C000000C014090F83E30202B0ED159B152B17F
:1037D00090F83C30012B08D0012380F83C300023C6
:1037E000036301F0DFBC0120704702207047000036
:1037F00010B500681549884203D11548407900F09A
:1038000051FE13490122491D1248FFF7DBFF104901
:1038100010480122891D4430FFF7D4FF0C490D48A0
:103820000122C91D8830FFF7CDFF0949094801224F
:1038300008318838FFF7C6FF0549064801220931DB
:10384000BDE810404438FFF7BDBF0000003801401C
:1038500030000020F80400202DE9F843044690F8D9
:103860003D001F4616460D4620284CD1C5B1BEB1BD
:1038700094F83C00012846D0012084F83C004FF029
:103880000008C4F84080212084F83D00FEF76AF863
:10389000A6848146E684A068B0F5805F03D004E08A
:1038A0000120BDE8F883206928B12E465FF00005AD
:1038B00084F83C800EE00026FAE78021204601F0E3
:1038C0008CFCA0B9AEB116F8010B21684860E08C01
:1038D000401EE084E08C4B464FF000020097002829
:1038E000EBD14FF04001204601F077FC30B10320CE
:1038F000D7E735F8020BC0F30800E6E7202084F88C
:103900003D000020CDE70220CBE77047FEE7000036
:1039100010B500F087F80C4C002280212046FEF7FD
:103920001CF8022003F0D9FF012240212046FEF7B7
:1039300014F8022003F0D1FF20460022BDE8104019
:103940004021FEF70AB80000000C014000F06AB800
:1039500010B50F4C002240212046FDF7FEFF00F07D
:1039600061F8012280212046FDF7F7FF022003F0D5
:10397000B4FF012240212046FDF7EFFF022003F0B3
:10398000ACFF20460022BDE810404021FDF7E5BF16
:10399000000C01402DE9F041002507462C4600F0BF
:1039A00031F8174E002240213046FDF7D6FF0220A5
:1039B00003F093FF012240213046FDF7CEFF600661
:1039C000040E80213046FDF7C3FF08B144F0010426
:1039D000022003F082FF6D1CEDB2082DE2D300221D
:1039E00040213046FDF7B9FF3FB1FFF791FF00BF1F
:1039F00000F018F82046BDE8F081FFF7A9FFF7E7CF
:103A0000000C01401FB50020019003908020009021
:103A10000120029069460248FDF79EFE1FBD00008E
:103A2000000C01401FB58020009011200190012062
:103A300002900320039069460148FDF78DFE1FBDEB
:103A4000000C014070B505460024FFF7EBFF154E52
:103A5000002240213046FDF780FF280601D50122D3
:103A600000E0002280213046FDF777FF6806050E52
:103A7000022003F032FF012240213046FDF76DFFA6
:103A8000022003F02AFF641CE4B2082CE0D30022D9
:103A900040213046FDF761FFBDE87040022003F091
:103AA0001CBF0000000C014010B5FFF7BBFF0E4C1F
:103AB000012280212046FDF750FF012240212046AF
:103AC000FDF74BFF022003F008FF00228021204673
:103AD000FDF743FF022003F000FF20460022BDE86F
:103AE00010404021FDF739BF000C014010B5FFF731
:103AF00099FF0C4C002280212046FDF72EFF02206A
:103B000003F0EBFE012240212046FDF726FF0220B4
:103B100003F0E3FE20460122BDE810408021FDF7BE
:103B20001CBF0000000C014070B5184D002401229C
:103B300080212846FDF711FF012003F0CEFEFFF79C
:103B400061FF012003F0C9FE012240212846FDF754
:103B500004FF022003F0C1FE09E0641CE4B2FA2C69
:103B600005D9FFF7C3FFFFF75DFF012070BD80217E
:103B70002846FDF7EDFE0028EFD10022402128461F
:103B8000FDF7EBFEFFF74EFF002070BD000C01407B
:103B90002DE9F0411D461646884607460024FFF7EA
:103BA00083FF3846FFF74EFFFFF7BEFF012812D014
:103BB0004046FFF747FFFFF7B7FF01280BD0FFF79D
:103BC00073FF7F1CF8B2FFF73DFFFFF7ADFF012841
:103BD00001D06F1E0BE00020BDE8F081BC4201D097
:103BE000012000E00020FFF7D5FE3055641CAC42F8
:103BF000F4D3FFF77BFF0120EEE72DE9F0411D46EE
:103C00001646884607460024FFF74EFF3846FFF762
:103C100019FFFFF789FF012816D04046FFF712FF72
:103C2000FFF782FF01280FD007E0305DFFF70AFFA2
:103C3000FFF77AFF012807D0641CAC42F5D3FFF7E9
:103C400055FF0120BDE8F0810020FBE7F0B500231F
:103C50000A24302537261F4611E000BFB4EB107F41
:103C600002D905EB107C01E006EB107C01F813C0D3
:103C700001EB430C00015B1C8CF80170DBB293423A
:103C8000ECD3F0BD084840F2E732B0F90A10A1F2D7
:103C9000DD51914205D2B0F90400B42801DB0020C7
:103CA0007047012070470000303500207047000049
:103CB0002DE9F34F34480F4600F1880483B0416882
:103CC0002160324D80686060A4F1AC082E68D8F89D
:103CD00000003146FCF71CFB82462D490398FCF797
:103CE0001DFB01464FF07E594846FCF749FB49460B
:103CF000FCF7BCFA01464846FCF742FB81465146B8
:103D0000FCF70CFB3146FCF7B1FA28606E68D8F876
:103D100004003146FCF7FCFA01464846FCF7FEFA7F
:103D20003146FCF7A3FAA4F130066860B6F9040046
:103D3000FCF770FBE060B6F90600FCF76BFB0026B1
:103D4000B346A046A946A4F50E7A2061CDE900B796
:103D500008EB860406EB46010AEB411158F82620D1
:103D60000D46E368039800F0A7FD59F826000949BD
:103D7000FCF7D4FA696BFCF779FA761CA061022E85
:103D8000E4DB05B0BDE8F08F603500205002002074
:103D90003433FB418FC2F53C094808B5416941F015
:103DA000020141614069002200F0020000900521FB
:103DB0003920FDF775FEBDE808403920FDF762BEE9
:103DC0000010024010B5264803F0A0FF254CA0616A
:103DD0002348103003F09AFFE0612148203003F0BF
:103DE00095FF1F4B2062303B002201211E4804F04A
:103DF0004DF81B4BE060203B002201211B4804F0E2
:103E000045F8174B2061103B00220121184804F0AF
:103E10003DF8134A60619C3A0021164803F0E4FF24
:103E20000F4A2060783A0021134803F0DDFF0C4A66
:103E30006060543A0021114803F0D6FFA0600848A2
:103E4000303003F05BFE60620548403003F056FE00
:103E5000A0620348503003F051FEE06210BD000044
:103E6000489E000800000020C34F0008ED690008CC
:103E7000AD3C00085D4C00088D120008B16B0008D5
:103E800030B585B000242448009401940294039432
:103E9000816941F020018161816901F02001049173
:103EA000816941F004018161816901F0040104919B
:103EB000816941F008018161816901F00801049183
:103EC000816941F0100181618069144D00F010009A
:103ED00004900022C0212846FDF73FFD802000907D
:103EE0000F48CDE9010469460E48FDF735FCC020B6
:103EF00000900120CDE90104022003906946284684
:103F0000FDF72AFC002206211720FDF7C9FD172026
:103F1000FDF7B8FD05B030BD00100240000C0140B7
:103F2000000021100010014010B58EB0002407944D
:103F3000089409940A940B941C2168460C94FCF78D
:103F40008AF92A48284901604721C0E9011444F64A
:103F50001F61C0E903148461FEF71EFE08B1FDF77E
:103F600073F94FF48050079007A92048FEF71CFF13
:103F700008B1FDF769F91D48FFF7E8F808B1FDF74A
:103F800063F90B940BA919480C94FEF7C7FD08B10F
:103F9000FDF75AF96020CDE9000402940022694639
:103FA00012480494FFF76FF808B1FDF74DF90422A9
:103FB00069460E48FFF767F808B1FDF745F9082292
:103FC00069460A48FFF75FF808B1FDF73DF90C2292
:103FD00069460648FFF757F808B1FDF735F9034879
:103FE000FFF702F80EB010BD00040040A40200204C
:103FF00010B586B0002417480094019402940394ED
:1040000004941349059401604721C0E901144FF657
:10401000FF71C0E903148461FEF7BEFD08B1FDF72E
:1040200013F94FF48050009069460A48FEF7BCFE31
:1040300008B1FDF709F9049404A906480594FEF7B0
:104040006DFD002801D0FDF7FFF806B010BD00009F
:1040500000080040EC02002010B586B0002417488C
:10406000009401940294039404941349059401600C
:104070004721C0E9011440F2E731C0E9031484612B
:10408000FEF78AFD08B1FDF7DFF84FF4805000908D
:1040900069460A48FEF788FE08B1FDF7D5F8049492
:1040A00004A906480594FEF739FD002801D0FDF764
:1040B000CBF806B010BD0000000C00403403002017
:1040C0001CB500240E4800940C490194016047215E
:1040D000C0E901144FF6FF718461C160FEF75CFD19
:1040E00008B1FDF7B1F80094694605480194FEF760
:1040F00015FD002801D0FDF7A7F81CBD00140040F5
:104100007C03002010B596B000240F9410941194F5
:10411000129413941C2108A81494FCF79CF82021F5
:104120006846FCF798F827482549C0E9001459214A
:10413000C0E90241046144618461FEF72DFD08B1CC
:10414000FDF782F84FF480500F900FA91D48FEF73D
:104150002BFE08B1FDF778F81A48FEF7F7FF08B113
:10416000FDF772F8139413A916481494FEF7D6FCC1
:1041700008B1FDF769F86020CDE908040A940C94B1
:104180000D940C2208A90F480E94FEF77CFF08B18D
:10419000FDF75AF800944FF40050CDE90440029422
:1041A00001940394694607480794FEF78DFC08B113
:1041B000FDF74AF80348FEF717FF16B010BD0000E0
:1041C00000340140C40300200C4810B50A490160C6
:1041D0004FF4E1314160002181600C22C160C0E9EF
:1041E00004128161C161FFF7BDF9002803D0BDE869
:1041F0001040FDF729B810BD004C004070040020AD
:104200000C4810B50A4901604FF4E13141600021CA
:1042100081600C22C160C0E904128161C161FFF7B5
:10422000A1F9002803D0BDE81040FDF70DB810BD7E
:1042300000500040B40400200E4810B50C49016045
:104240000D4941604FF48051816000214FF480623C
:10425000C0E903120C22C0E90521C161FFF782F910
:10426000002803D0BDE81040FCF7EEBF10BD0000F1
:1042700000380140F8040020A08601000C4810B569
:104280000A4901604FF4E1314160002181600C2254
:10429000C160C0E904128161C161FFF763F90028C0
:1042A00003D0BDE81040FCF7CFBF10BD0044004074
:1042B0003C0500200C4810B50A4901604FF4E1317B
:1042C0004160002181600C22C160C0E9041281615B
:1042D000C161FFF747F9002803D0BDE81040FCF7A3
:1042E000B3BF10BD004800408005002010B500227B
:1042F0000F49104801F072FA08B1FCF7A5FF0E490A
:104300000C4801F04FFC08B1FCF79EFF0B4909482F
:1043100001F08CF808B1FCF797FF064801F098FC13
:10432000002803D0BDE81040FCF78EBF10BD000090
:10433000C4000020481F00200002002014010020BB
:10434000FEE700002DE9F84FDFF8208140F2DC5154
:10435000474FB8F90A00474CA8F57675884209DA44
:1043600000262E600121386803F09CFB26806680C1
:10437000A680E680B8F904100126B1F5966F0CDA34
:10438000B8F90A0040F2E731A0F2DD50884204D2C9
:104390002E600121386803F0D3FB0222002311466E
:1043A000386803F003FCB6EB500F01D14008686099
:1043B000286801283BD16868012838D12B48303063
:1043C000C068FCF735F805462848C038406BFCF754
:1043D0002FF8294F2E18B046D7F89400FCF728F88C
:1043E0008246A6EB0A05D7F85401FCF721F881466E
:1043F00005EB0906D7F81402FCF71AF80146701A03
:1044000008EB0A0200F2DC5002EB09032080581886
:1044100000F2DC506080A2EB0902501A00F2DC507E
:10442000A080A5EB0902501800F2DC50E080B4F93E
:1044300006000090B4F90430B4F90220B4F9001079
:104440000EA002F0BFFD1548B4F9001002685163D8
:104450000268B4F9021091630268B4F90410D163E0
:104460000068B4F906100164BDE8F88F303500200B
:104470002400002058020020703100204D6F746F1E
:104480005F50574D5F663A2025642C2025642C2010
:1044900025642C2025640D0A00000000A4020020E1
:1044A000FEE700002DE9FF41DFF8F0C03C4C62461A
:1044B0009CF80110127804F13006002571B16746AE
:1044C0007B783F785B1C0744DBB2FFB2062912D22F
:1044D00060548CF801308CF8007053E0EF2802D063
:1044E0008CF801504EE001218CF801102070EF3261
:1044F0008CF8002046E01A2905D260548CF8007030
:104500008CF801303EE03DD1A076E046904239D1B2
:10451000A37AE27A217B607B03F0E8F902282DD3AD
:104520001F4F207C1C37012807D1A37AE27A217B18
:10453000607B03F0DBF978603060E07D012809D111
:10454000A17CE07C04F0B4F9B881217D607D04F0A9
:10455000AFF9F881207C012810D1E07D01280DD130
:10456000B7F90C2030686421424392FBF1F2B2802B
:10457000B7F90E20424392FBF1F0F08088F8015029
:1045800088F800500023CDE9025600951A461946D6
:1045900018460195FCF766FDBDE8FF816C0200201E
:1045A0003C3800202DE9F84F044640F68F7B48F652
:1045B0000F7A4FF002094FF4806874E1B0F84410AC
:1045C00011F00F063AD030F8267039047DD530F856
:1045D000261001EA0B0141F0800120F8261006EBBD
:1045E000860004EBC00595F8740105F5B475002844
:1045F0006CD0E87802286AD02878226832F8201037
:1046000048F68F73194048F2C003194322F820106E
:104610002878D4F800C03CF82010BCF85020490499
:104620007ED509EBC000111808EB41003CF80000F2
:104630008005800D009074D02A89D8E0C9062DD459
:10464000018801EA0A0141F400410180216804F176
:104650002805B1F850202B7809EBC300024408EB81
:104660004200085AC0F309006064E16B0844E0634B
:1046700000212046FDF765FA94F8240000289CD01C
:10468000A869002899D194F82400216840F080009E
:10469000A1F84C00002084F8240004E1018804F50E
:1046A000B4750A0521D5B0F850202B78062101EB0E
:1046B000C3010A4408EB4201405A04F52C71C0F3CF
:1046C0000903EB61EA88206802E0ACE068E07AE088
:1046D00002F05AF92168088800EA0B0040F08000D7
:1046E00008802046FDF7A9FEDDE00904D5D5018844
:1046F00001EA0B0141F0800101802068B0F85020F0
:104700002B78062101EBC3010A4408EB4201405A11
:1047100083059B0DEB6110D0696971B1EA8801E0F6
:1047200058E056E0206802F02FF9E969686908440A
:10473000686100212046FDF70DFA2068018809050F
:104740002DD4B0F850100844296900F20C4051B142
:104750003E2910D84A08C90700D0521C4FF6FF71F5
:1047600001EA82210FE0018821F4F84101800188EB
:1047700041F4004107E04A09C90600D1521E4FF436
:10478000004141EA82210180206801884BF68F7246
:10479000114081F4405148F280021143018082E0CF
:1047A000D4F800C0BCF850102A78062000EBC200F4
:1047B000014408EB41003CF800008005800D0090AA
:1047C0001AD0EA8813E03A4629462046FDF720FA37
:1047D000009011E0062101EBC000111808EB410028
:1047E0003CF800008005800D009005D06A890346E2
:1047F0006046696902F0C8F8E96900980844E86110
:104800006969009808446861A86918B12969009825
:10481000814204D929782046FDF79CF903E0294616
:10482000206801F097FD38063DD506EB860004EBC5
:10483000C001206830F8262002EA0A0242F4004251
:1048400020F8262091F82B002831032804D018B135
:10485000022824D1F80522D42368B3F850200D781B
:1048600009EBC500024408EB4200185A8A69C0F3FC
:10487000090082420CD9121A8A610BD04A6902449B
:104880004A61CA691044C861206801F063FD0AE00A
:1048900000208861E9B22046FDF753F903E03A466B
:1048A0002046FDF728FA2068B0F8441009043FF5C7
:1048B00085AE0020BDE8F88F2DE9F0479846DDE988
:1048C00008A915460C4610F0FF4F52D001464FF094
:1048D0007E50FBF755FD0746C4F8488046464146E2
:1048E00028462564FBF714FD0146A0602068FBF70D
:1048F00015FD606294F83800FBF795FD6168FBF7E1
:104900000DFDE168FBF70AFDA0623046E16CFBF7A4
:10491000FFFCA16DFBF702FD3946FBF7FFFC0646E5
:104920002846616CFBF7F4FC616DFBF7F7FC394638
:10493000FBF7F4FC3146FBF7EBFC0025E062B9F134
:10494000000F18D0E5605146206DFBF7E7FC616A67
:10495000FBF78CFCA16AFBF789FCE16AFBF786FC9C
:104960006063A0686061206C6064A06CE064BDE876
:10497000F0870027B0E74046E169FBF77DFD06D3ED
:10498000E069414680F00040FBF776FD02D284F8F2
:104990003850D8E7012084F83800D4E90210FBF73A
:1049A00065FC0146E060206A80F00040FBF764FD92
:1049B00003D8206A80F0004007E0216AE068FBF736
:1049C0005BFD01D2206A00E0E068E060BBE7000028
:1049D000F0B53D483B4D0021C0E90051816580F8AC
:1049E00038103D4F3B4EC0F8B8704FF07E52C0F8C3
:1049F000B470C0E91826364B344CC0E9074380F840
:104A00009810C0E93051DFF8D4C0C0F81411C0E9E3
:104A10001FC380F8F810C0F87871C0F87471C0E94D
:104A20004826C0E9374380F85811C0E94FC32C4BE2
:104A3000C0E960314FF07C534365C0F8D43180F851
:104A4000B811C0F89C41274CC0F8A041C0E97831AA
:104A5000C0F83412C0F83812234B80F81812C0E99D
:104A60007F4300F51070214CC0E90041416581652C
:104A700080F83810C0E918411E4DC0F8B4101C4B26
:104A8000C0F8B810C0E9073580F89810C0E91F35A4
:104A9000C030194CC0E91821C0F8B010C0F8B410EB
:104AA000C0F8B81080F89810C0E91F41C0E9002193
:104AB00001654165816580F838101049C0E907310A
:104AC000F0BD00000000E0407031002000000C420A
:104AD00000007A440AD7233C6F12033B0000FA43DC
:104AE0000000A0400000484300009644AE47613EED
:104AF00000004842000020410000C8420000F04190
:104B000010B5104802F05EFA0F4802F05BFA0FA0F1
:104B100002F058FA194802F055FA19A002F052FAB8
:104B200021A002F04FFA2BA002F04CFA36A002F0BE
:104B300049FA42A002F046FABDE81040464802F0A9
:104B400041BA0000C4A200086CA1000855415254AB
:104B50002053454E443A615C725C6E2020204163D4
:104B600063656C65726174696F6E2063616C696204
:104B7000726174696F6E2E0D0A0000005CA200085D
:104B8000554152542053454E443A555C725C6E2058
:104B9000202042616E64776964746820696E637274
:104BA000656173652E0D0A00554152542053454EE0
:104BB000443A755C725C6E20202042616E647769B5
:104BC00064746820726564756374696F6E2E0D0A73
:104BD00000000000554152542053454E443A425C77
:104BE000725C6E20202042617564207261746520C1
:104BF000696E6372656173656420746F203131354D
:104C00003230302E0D0A0000554152542053454E8B
:104C1000443A625C725C6E202020426175642072AE
:104C200061746520726564756374696F6E20746F5A
:104C300020393630302E0D0A000000005541525404
:104C40002053454E443A685C725C6E2020206865B3
:104C50006C702E0D0A00000008A20008FFF746FB4A
:104C6000FCF784FA022002F003FFF9E710B55020A8
:104C700080F31188BFF34F8FBFF36F8F04F072FE84
:104C800018B104494FF080500860002080F311886B
:104C900010BD000004ED00E030B595B02821684655
:104CA000FBF7D9FA14210AA8FBF7D5FA18210FA8A7
:104CB000FBF7D1FA01210804CDE900100024029489
:104CC00002250491CDE907504FF4E01009906846A1
:104CD000FDF768FD08B172B6FEE70F20CDE90A05C1
:104CE0004FF48060CDE90C4002210AA80E94FDF734
:104CF0004DFC08B172B6FEE7102014940F900FA877
:104D0000FDF7CEFB002801D072B6FEE715B030BD2E
:104D1000704700000148FEF7B3B8000034030020DC
:104D20000148FEF7ADB800002C060020F0B502687F
:104D30001C4B1D4D1D4E1E4F1E4C4FF0804C98427B
:104D400009D0A04207D0604505D0A84203D0B042A8
:104D500001D0B84204D122F0700E4A6842EA0E0235
:104D6000984209D0A04207D0604505D0A84203D0A0
:104D7000B04201D0B84203D122F44075CA682A4338
:104D80004D6922F080022A4302608A68C2620A6882
:104D90008262984201D0A04201D1096901630121D8
:104DA0004161F0BD002C01400004004000080040BB
:104DB000000C00400034014010B501F01F03012138
:104DC000046A99408C430462016A9A40114301626B
:104DD00010BD10B5846842EA032224F47F440A43DC
:104DE0002243826010BD826822F070020A4342F0C2
:104DF0000701816070470000F0B5026A22F00102ED
:104E00000262036A42688469124E24F073050C68DA
:104E10002C4323F002058B682B430D4DA84201D093
:104E2000B04205D123F00807CB683B4323F00403CD
:104E3000A84201D0B04205D14D6922F44072154319
:104E40008A692A4342608461496841630362F0BD14
:104E5000002C014000340140F0B5026A22F010023B
:104E60000262026A436884690D6824F4E64444EAF5
:104E700005248D6822F0200242EA05120F4D104EE3
:104E8000A84201D0B04206D1CF6822F0800242EAA7
:104E9000071222F04002A84201D0B04207D14D696A
:104EA00023F4406343EA85038D6943EA8503436045
:104EB0008461496881630262F0BD0000002C0140FA
:104EC00000340140F0B5026A22F480720262026A84
:104ED0004368C46922F4007224F073050C68124E12
:104EE0002C438D6842EA05220E4DA84201D0B04203
:104EF00006D1CF6822F4006242EA072222F48062DF
:104F0000A84201D0B04207D14D6923F4405343EA8F
:104F100005138D6943EA05134360C4614968C163A1
:104F20000262F0BD002C01400034014030B5026A3D
:104F300022F480520262046A4268C3690D6823F455
:104F4000E64343EA05238D6824F4005444EA05341B
:104F5000084DA84202D0084DA84204D14D6922F460
:104F6000804242EA85124260C3614968016404627A
:104F700030BD0000002C01400034014010B5036A30
:104F8000046A24F001040462846924F0F00444EA11
:104F9000021423F00A020A438461026210BD10B5B4
:104FA000036A23F0100303628369046A23F47043E5
:104FB00043EA023224F0A00343EA01118261016254
:104FC00010BD704710B503F0F5FB002805D0D0E9FF
:104FD0000021BDE810400846104710BD0148FEF70B
:104FE000BBB90000700400200148FEF7B5B900000D
:104FF000B404002010B5406A0021C185C184FEF7C9
:10500000A9F910BD0168CA6822F49072CA600168EB
:105010004A6922F001024A61016B012904D1016849
:10502000CA6822F01002CA60202180F83E100021D8
:105030000163704708B590F83E10222901D0022084
:1050400008BD82684FF480539A4201D1016921B1B1
:10505000816A9A421BD04AB10AE00268816A5268AA
:10506000C2F308020A80816A891C08E0026972B1F1
:105070000268526802F07F020A70816A491C8162EC
:10508000C18D491E0904090CC18503D019E00268CD
:105090005268F1E70168CA6822F02002CA6001681C
:1050A000CA6822F48072CA6001684A6922F001026B
:1050B0004A61202180F83E10016B012903D0FEF7E0
:1050C00097FB002008BD002101630168CA6822F037
:1050D0001002CA6001680A68D20602D50A684968E7
:1050E0000091818DFEF735F9EBE7000070B50446BD
:1050F00000680169E26821F44051114301612169AE
:10510000A0680843616908432168CA6841F20C63DA
:105110009A430243CA6020684169A26921F4407140
:10512000114341611E492068884202D1FDF7F4FA1B
:1051300001E0FDF7E1FA00EBC00101EB001260684D
:1051400064218000B2FBF0F3B3FBF1F36FF01806BB
:105150007343B2FBF0F5B2FBF0F605EB83053223A7
:1051600003EB0515B5FBF1F5B6FBF1F605F0F0051F
:1051700005EB0615B2FBF0F6B2FBF0F0B0FBF1F078
:105180006FF01802504306EB800003EB0010B0FBF9
:10519000F1F0216800F00F002844886070BD000025
:1051A0000038014081628285C2850021016422228B
:1051B00080F83E2080F83C100168CA6842F4807292
:1051C000CA6001684A6942F001024A610068C16828
:1051D00041F02001C160002070472DE9F041984660
:1051E00017460E460446069D1DE0681C1BD02DB1D7
:1051F000FCF7B8FBA0EB0800A84214D92068C168EE
:1052000021F4D071C1602068416921F00101416140
:10521000202084F83D0084F83E00002084F83C0003
:105220000320BDE8F0812068006836EA000004D061
:105230000020B842D9D00020F3E70120F9E70000B0
:105240000148FEF789B80000F80400200148FEF785
:1052500083B800003C0500200148FEF77DB800003F
:10526000800500202DE9F041D0F8C032D0F8B822F6
:10527000CAB101EB810500EB85040026E7693FB167
:1052800003EBC5039B6BB7FBF3F503FB157323B16E
:10529000C2F814620020BDE8F08100231A46E661DE
:1052A00000F063FCF6E70220F5E770B50546D0F89C
:1052B000B84200F05EFBC4F80C02D5F8B80248B161
:1052C000D5F8BC12D4F80402CA6804F503719047FB
:1052D000002070BD022070BD70B5044600268121FB
:1052E00000F09AFA002501212046E56200F094FAC8
:1052F00082212046C4F86C5100F08EFA2564D4F85F
:10530000B80248B1D4F8BC0204F52E744068804756
:10531000206800F0FAFD2560304670BD10B5D0E978
:10532000AE4159B194F80002FF2807D08B6894F879
:10533000012221469847FF2084F80002002010BD7A
:105340000A21018000487047280100204321018084
:1053500000487047780100204321018000487047D1
:10536000340100204321018000487047BC01002027
:105370002DE9F04104460026007C4FF4007701251A
:1053800090B3402302228121204600F047FB4023B6
:10539000E56202220121204600F040FB082303229F
:1053A00082212046C4F86C5100F038FB4FF407709E
:1053B000256400F0ABFDC4F8B802F8B10546D4F896
:1053C000BC02006880470020C5F81402C5F8180226
:1053D000207CD5F8042298B140230121204600F01A
:1053E00029FB3046BDE8F081FFE73B4602228121E0
:1053F000204600F013FB3B46E562CAE70126F0E7D2
:105400003B46EAE710B5D0F8B81269B1027C002A31
:10541000D1F8042205D04023012100F00BFB00202D
:1054200010BD4FF40073F7E7022010BD02460220C2
:10543000002902D00020C2F8BC127047D0F8B80290
:10544000C0F8041200207047D0F8B802C0F810224B
:10545000C0F80812002070472DE9FC410546D0F83D
:10546000B87200208DF80000ADF8040006460878F8
:105470000C4610F0600121D020293BD1E288AAB16E
:105480000006607807D5D5F8BC128B683946984776
:10549000E288394626E087F80002A07987F8010201
:1054A000E2883946284600F04FF828E0D5F8BC12CB
:1054B000607800228B682146984720E0607820B110
:1054C0000A2809D00B2815D110E095F89C02032872
:1054D00010D1022201A905E095F89C02032809D108
:1054E00001226946284600F049F808E095F89C0238
:1054F000032804D02146284600F01BF80226304637
:10550000BDE8FC8110B5D0F8B42252689047002065
:1055100010BD134610B50A46002100F08BFA00209A
:1055200010BD134610B50A46002100F01EFB0020F6
:1055300010BD10B50446802100F0FCFA2046BDE8FD
:105540001040002100F0F6BA10B50323C0F85C212A
:10555000C0F89432C0F8602113460A46002100F0DA
:1055600069FA002010BD10B505210023C0F894127F
:105570001A46194600F05EFA002010BD10B502234D
:10558000C261C0F89432026213460A46002100F05C
:10559000ECFA002010BD10B504210023C0F89412CD
:1055A0001A46194600F0E1FA002010BD10B50A466F
:1055B000024903A000F0E2F8004810BD0C220020D0
:1055C00043444320436F6E666967000012200880E1
:1055D00000487047E400002010B50A46024903A0C5
:1055E00000F0CCF8004810BD0C22002043444320BA
:1055F000496E74657266616365000000042008806E
:1056000000487047E000002010B50A46024903A098
:1056100000F0B4F8004810BD0C22002053544D692E
:1056200063726F656C656374726F6E69637300009B
:1056300010B50A46024903A000F0A0F8004810BDCA
:105640000C22002053544D33322056697274756118
:105650006C20436F6D506F727400000010B51A20FB
:1056600008800A480168001D0468001D00680818C9
:1056700009D008220649FEF7E9FA0549042210314B
:105680002046FEF7E3FA0248801E10BDE8F7FF1F30
:10569000FA000020F8B504460020ADF80000488864
:1056A0000D46010A082948D2DFE801F0470409172E
:1056B00047473C45D4F8B012207C0A6819E0207CAA
:1056C00002260028D4F8B40205D0C16A684688478B
:1056D000014646703EE0816AF8E7C0B206282CD247
:1056E000DFE800F0030A1014181CD4F8B002426876
:1056F00005E0694690471CE0D4F8B0028268E2B148
:10570000207CF6E7D4F8B002C268F8E7D4F8B0021B
:105710000269F4E7D4F8B0024269F0E7D4F8B002C5
:105720008269ECE7207C40B9D4F8B402416B68464A
:10573000884701460EE0207C20B129462046FFF72D
:10574000F8FEF8BDD4F8B402016B684688470146FC
:1057500007204870BDF8000048B1EA8852B1824283
:1057600000D90246ADF800202046FFF707FFE88881
:105770000028E6D12046FFF70EFFF8BD70B50023E4
:1057800000281ED00446002502E06D1CEDB2641C0A
:105790002678002EF9D1022404EB450414801278F7
:1057A000CA545B1C0322CA5400245B1C06E0CA5482
:1057B0005B1CDAB28C54521CD3B2401C0278002A13
:1057C000F5D170BD01004FF0000004D0012901D0D7
:1057D000022901D0022070470120704710B580B126
:1057E000D0F8B43213B10023C0F8B43209B1C0F814
:1057F000B012012180F89C12027000F0BFF8002066
:1058000010BD022010BD10B5D0F8C002FCF7D2F9CF
:10581000BDE81040FFF7D6BF10B5D0F8C002FCF7C6
:10582000A3F9BDE81040FFF7CDBF2DE9F0411746C1
:10583000044651B1D4F8B40242691AB194F89C02FA
:10584000032851D00220BDE8F081D4F8943200251D
:1058500004F11400022B03D0042B3AD0C3B33CE074
:10586000D0E903639E4207D9F11AC1608AB2394672
:105870002046FFF756FE12E08068B0FBF3F103FB11
:10588000110199B9984211D3D4F8981288420DD2D7
:10589000002211462046FFF744FEC4F89852002328
:1058A0001A461946204600F0C5F816E0D4F8B402AE
:1058B000C16829B194F89C02032801D12046884789
:1058C0008021204600F036F92046FFF74CFE04E028
:1058D000FFE78021204600F02DF994F8A00201286E
:1058E00004D184F8A05201E0204690470020AAE7A6
:1058F00070B51546044649B1D4F8B40282691AB1AC
:1059000094F89C02032830D0022070BDD4F8941281
:1059100004F5AA70032902D005291ED027E0D0E99A
:1059200003218A420BD9531AC3600846834200D32D
:1059300003469AB229462046FFF7EBFD17E0D4F85C
:10594000B402016929B194F89C02032801D12046D0
:1059500088472046FFF71FFE09E000200146C4F8F3
:105960009402204600F0E6F801E02046904700202F
:1059700070BDD0F8C002FCF756BB000010B504465D
:105980001C481D49C0F8E842C4F8C0020160082163
:1059900041600221816000218161C1610162FCF7E7
:1059A00091FC08B1FBF750FC0022D4F8C002182388
:1059B000114604F53074FCF7A5F858230022802125
:1059C0002068FCF79FF8C023002281212068FCF7A3
:1059D00099F84FF48873002201212068FCF792F8AF
:1059E0004FF48073002282212068FCF78BF800209E
:1059F00010BD00006C2E0020005C00400A0601F083
:105A00007F01D0F8C00201EB810100EBC10002D59B
:105A100090F82A00704790F86A01704710B51C464C
:105A20001346D0F8C0022246FCF706FBBDE8104042
:105A3000FFF7C8BE10B5D0F8C002FCF72DFBBDE8DB
:105A40001040FFF7BFBE70B5002204464023114648
:105A5000FFF7E4FF40260125C4F8646133460022C5
:105A600080212046C4F85851FFF7D8FF6662A5612F
:105A700084F89C520020C4F894026060C4F8A40228
:105A8000D4F8B80228B1D4F8B40200214268204604
:105A90009047002070BD90F89C12042903D190F823
:105AA0009D1280F89C120020704710B590F89C124F
:105AB000032904D1D0F8B412C96901B18847002084
:105AC00010BD01740020704710B5D0F8C002FCF77B
:105AD000A0FCBDE81040FFF775BE70B5044600F5A8
