:020000040800F2
:1000000000430020E1010008194A0008293E0008C9
:10001000A5480008210F00080F720008000000002A
:10002000000000000000000000000000490100087E
:100030002F130008000000008D0100084D54000837
:10004000FB010008FB010008FB010008FB010008A0
:10005000FB010008FB010008FB010008FB01000890
:10006000FB010008FB010008FB010008FB01000880
:10007000FB010008FB010008FB010008FB01000870
:10008000FB010008FB010008FB010008FB01000860
:1000900099710008FB010008FB01000835130008F6
:1000A000FB010008FB010008FB010008FB01000840
:1000B000FB010008FB010008FB010008FB01000830
:1000C000FB010008FB010008FB010008FB01000820
:1000D000FB0100084D5B0008595B0008655B0008E8
:1000E000FB010008FB010008FB010008FB01000800
:1000F000FB010008FB010008FB010008FB010008F0
:10010000FB010008FB010008F5540008FB01000892
:10011000AD580008B958000801550008FB01000857
:10012000FB010008F9120008FB010008FB010008B0
:10013000DFF810D000F0E0FB004800479383000890
:10014000AFF3008000430020224B19680868B0E834
:10015000F00F80F30988BFF36F8F4FF0000080F33A
:1001600011884EF00D0E7047000000000648006830
:10017000006880F3088862B661B6BFF34F8FBFF3A3
:100180006F8F00DF00BF00BF08ED00E0EFF30980D4
:10019000BFF36F8F0F4B1A6820E9F00F106008B59E
:1001A0004FF0500080F31188BFF34F8FBFF36F8F74
:1001B00009F050FB4FF0000080F31188BDE80840C3
:1001C00019680868B0E8F00F80F30988BFF36F8FF3
:1001D000704700BF4C000020EFF30580704700001F
:1001E0000648804706480047FEE7FEE7FEE7FEE7D1
:1001F000FEE7FEE7FEE7FEE7FEE7FEE7F154000854
:1002000031010008202A04DB203A21FA02F0002103
:10021000704721FA02F3D040C2F120029140084316
:100220001946704740EA01039B0703D009E008C95B
:10023000121F08C0042AFAD203E011F8013B00F8AB
:10024000013B521EF9D27047D2B201E000F8012BF7
:10025000491EFBD270470022F6E710B513460A4646
:1002600004461946FFF7F0FF204610BDF0B480EABF
:100270000102D40F4200B2EB410F02D202460846FF
:1002800011464A0042D0C30DDDB2C1F3C752AD1AC8
:10029000202D35DAC1F3160141F4000204B15242B7
:1002A000C5F1200602FA06F12A411044B3EBD05FF3
:1002B00023D0C4B1012DA0EBC35009DCF0BC4FF03A
:1002C000004202EAC352DBB200F5000000F02EB992
:1002D000400000F1807000EBC350A0F1807040EA54
:1002E000D170490009E0490841EAC071A0EBC35050
:1002F00000F50000400800EBC350F0BC00F00DB961
:100300006142012202EB4101001BF6E7F0BC70479D
:1003100081F00041AAE780F00040A7E780EA0102EF
:1003200010B502F00043400022D04A001FD0010E59
:1003300001EB1261C0F35600C2F3560240F4000014
:1003400042F40002A0FB022000047F39140400D014
:10035000401C50EA124001D44000491EC2B20C06B3
:1003600004EBD010401C4008802A02D003E000209B
:1003700010BD20F00100002900DA0020184310BD54
:1003800030B480EA010202F0004530F0004221F072
:10039000004013D090B1C30DD40DC2F31601C0F3C9
:1003A0001600E41A41F4000140F400027D34914249
:1003B00001D3641C00E04900002C02DA30BC0020AC
:1003C00070474FF400000023914201D3891A034380
:1003D00040084FEA4101F7D151B1914202D14FF0AB
:1003E000004105E002D24FF0010101E06FF0010190
:1003F00003EBC450284430BC00F08FB8420005D055
:10040000C0F3C7525242914201DC0020704700EB1A
:10041000C1507047C10F80EAE0700844CA079623B4
:10042000002100F083B896230022114600F07EB828
:1004300000F0004220F00040C10DC0F3160040F46F
:1004400000007F2901DA00207047962903DCC1F102
:100450009601C84001E096398840002AF4D0404215
:1004600070470000002801DBC0F10040002901DBDB
:10047000C1F1004181427047002801DBC0F100401A
:10048000002901DBC1F100418842704730B50B46BD
:10049000014600202022012409E021FA02F59D42B4
:1004A00005D303FA02F5491B04FA02F52844151E88
:1004B000A2F10102F1DC30BD2DE9F05F054600201C
:1004C00092469B4688460646814640241BE02846C5
:1004D000414647462246FFF795FE53465A46C01A04
:1004E000914110D311461846224600F017FA2D1AF2
:1004F00067EB01084F4622460120002100F00EFA6A
:1005000017EB00094E41201EA4F10104DFDC484630
:1005100031462A464346BDE8F09F0029A8BF7047F0
:10052000401C490008BF20F00100704710B4B0FA29
:1005300080FC00FA0CF050EA010404BF10BC7047C4
:1005400049B1CCF1200421FA04F411FA0CF118BFDE
:10055000012121430843A3EB0C01CB1D4FEA0061AD
:100560004FEA102042BF002010BC704700EBC35080
:1005700010440029A4BF10BC7047401C490008BFAC
:1005800020F0010010BC70472DE9FE4F804681EA43
:100590000300C00F0C46009021F0004123F00045FD
:1005A000B8EB0200A94105D24046214690461C46C0
:1005B0000B46024623F00040104347D0270DC7F3F7
:1005C0000A00C3F30A510290401A019040286BDAE6
:1005D000C3F3130040F4801B0098924620B100231F
:1005E000D2EB030A63EB0B0B01985946C0F14002B2
:1005F000504600F093F906460D4650465946019A7A
:1006000000F09BF910EB08006141002487EA1152C9
:1006100084EAE7731A4340D0009A62B3019A012A30
:100620004FEA075215DC001B61EB02014FF000425C
:1006300002EA0752CDE90042001C41F58011324622
:100640002B4600F09BF903B0BDE8F08F40462146F1
:10065000F9E7001B61EB0201001C41F58013001853
:100660005B412018A2F5001747EB030140EAD57063
:10067000B6196D4111E06D084FEA360645EAC075BE
:100680004FEA0752001B61EB0201001C41F580118B
:1006900049084FEA30000019514132462B4603B059
:1006A000BDE8F04F00F05BB9009801224000002344
:1006B000D0EB020263EBE073009821464FEAE0744E
:1006C000B8EB000061EB0401E9E783F000435BE76E
:1006D00081F0004158E72DE9FE4F81EA030404F060
:1006E000004421F0004100944FF0000B23F0004340
:1006F00050EA01045ED052EA03045BD0C3F30A540B
:10070000C1F30A552C44A4F2F3340194A0FB025423
:10071000C1F3130141F48011C3F3130343F48013B5
:1007200001FB024400FB034E840A970A44EA815409
:1007300047EA8357A4FB076802958D0A05FB0785E6
:100740004FEA932C04FB0C542705029D4FEA0658F0
:1007500047EA1637B5EB08056EEB070C870E920ECD
:1007600047EA811742EA8312A7FB0201B6EB0B01AD
:1007700064EB00042B0D43EA0C335E1844EB1C5071
:10078000DA465146E7FB0201C5F313044FEA0B3387
:1007900043EA14534FEA0432019C43EA0603A4F1EE
:1007A0000C040294009CCDE900B400F0E7F803B01B
:1007B000BDE8F08F00200146F9E72DE9F04D81EA10
:1007C000030404F0004B21F0004514464FF0000AEA
:1007D00023F0004150EA050220D054EA01021DD066
:1007E000C5F30A570246C5F31303C1F31300C1F35F
:1007F0000A5640F4801543F48013A7EB0608101B3B
:10080000D64608F2FD3873EB050002D308F1010863
:1008100001E092185B41B8F1000F03DA00200146B5
:10082000BDE8F08D00204FF48011064684460EE0AE
:10083000171B73EB050705D3121B63EB0503064378
:100840004CEA010C49084FEA300092185B4150EA2B
:100850000107EDD152EA030012D082EA040083EAD4
:100860000501084305D0101BAB4106D2012200232D
:1008700006E000224FF0004302E06FF00102531047
:100880001AEB06004CEB085110EB0A0041EB0B0190
:10089000BDE8F04D00F063B8C1F30A52C1F3130193
:1008A00040F2FF3341F480119A4202DA00200146FF
:1008B000704740F233439A42A2F2334202DC524282
:1008C000FFF7A0BC00F02AB830B5041E71F1000497
:1008D00004DB4FF00044404264EB0101141E73F14D
:1008E000000405DB1C464FF00043524263EB040357
:1008F000994208BF904230BD064C074D06E0E068C3
:1009000040F0010394E8070098471034AC42F6D356
:10091000FFF712FC3CAE00085CAE0008202A04DBA6
:10092000203A00FA02F1002070479140C2F1200302
:1009300020FA03F3194390407047202A06DBCB17B7
:10094000203A41FA02F043EAE07306E041FA02F38A
:10095000D040C2F12002914008431946704710B5BB
:10096000141E73F1000408DA401C41F100019218D2
:100970005B411A4301D120F0010010BD2DE9F04D7B
:1009800092469B4611B1B1FA81F202E0B0FA80F2D0
:1009900020329046FFF7C2FF04460F4640EA0A00A5
:1009A00041EA0B0153465A46084313D0114653EA15
:1009B000010019D0C8F140025046FFF723FC05465C
:1009C0000E46504659464246FFF7A8FF084305D059
:1009D000012004E020463946BDE8F08D00200543A3
:1009E00046EAE0762C4337430A986305E40AA0EB15
:1009F00008000022FD0A44EA47540A3002D50020CC
:100A00000146E9E7010510196941DDE908450019CA
:100A10006941BDE8F04DA2E770B58C1810F8015B94
:100A200015F0070301D110F8013B2A1106D110F887
:100A3000012B03E010F8016B01F8016B5B1EF9D18B
:100A40002B0705D40023521E0DD401F8013BFAE711
:100A500010F8013BCB1A921C03E013F8015B01F87C
:100A6000015B521EF9D5A142D8D3002070BD000011
:100A70002DE9FC5F83462B482B4E8A46A6F5A474CD
:100A800081460146904604F5BC755046FFF740FC90
:100A900007463068FFF7C7FC3946FFF7E3FC0BD386
:100AA00049465046FFF7E2FB07463068FFF7BBFCBC
:100AB0003946FFF7E1FC0AD21B481C495838C06888
:100AC000FFF72CFCD4F89410FFF7D0FB01E0D4F82A
:100AD0009400A860B6F90800FFF79CFC686100224A
:100AE000CDE90028034612495846AA6804F000FAE6
:100AF000104D0D487C38696980680E46FFF708FC88
:100B00000D49FFF70BFC3146FFF7B0FB014668616A
:100B1000A869FFF703FC616BFFF7A8FB6063BDE802
:100B2000FC9F000000004843F03500209A99193FCF
:100B3000A834002038020020CDCC4C3E2DE9FC47E3
:100B4000274C8146A4F164000D46C1689046234EAF
:100B50004846FFF7E3FB2349FFF7E0FBA168FFF7F7
:100B600085FB0746A06031466069FFF7D1FB394637
:100B7000FFF782FC6069314602D8FFF7C9FB0BE042
:100B8000FFF774FBA168FFF76DFC04D23146606982
:100B9000FFF76CFB00E0A0681349A0608D420AD209
:100BA000B0F5000F01DA002504E02946FFF764FCE8
:100BB00000D3A568A5600A480C380068FFF733FC2D
:100BC00060610022CDE9002805490346F439484612
:100BD000A26804F08DF9BDE8FC87000000004843DE
:100BE000FC3500200000204117B7D1B82DE9F34FA4
:100BF000344D354883B00E46AC78B0F90600FFF7A7
:100C000009FCDFF8C8B081464FF0000A012C13D16F
:100C100085F803A0296954464846FFF727FB01469B
:100C2000E878401CC0B2E8700A28F5D30846594657
:100C3000FFF7A6FB2861AC70254F48462969D7F815
:100C4000F4807C6BFFF767FB5946FFF799FBD7F8F9
:100C5000E011FFF763FB05461E481F49844201D39C
:100C6000024603E00A46944200DC2246804501D356
:100C7000804602E0884500DD884613485746183014
:100C8000D0E90013D0F8089081F00044CDE900A627
:100C9000A0F55E71039804F02BF9CDE900762346A8
:100CA00042460E49039804F023F90C49CDE9007639
:100CB0004B462A46C031039804F01AF905B0BDE846
:100CC000F08F00003802002068350020000020412D
:100CD000A83100200000C8C40000C844C832002069
:100CE0002DE9F34F5B48894683B001784FF0000A45
:100CF000012931D180F801A0D0E90276DFF858B19E
:100D00008046BBF90000FFF785FB0090BBF90200AD
:100D1000FFF780FB834639460098FFF7A7FA07469E
:100D200058463146FFF7A2FA98F801100646491CCA
:100D3000C9B288F801100A29EDD33846474F394621
:100D4000FFF71EFBC8F8080039463046FFF718FBCE
:100D5000C8F80C0088F800A03F48B830816981F0DD
:100D600000410191C069214680F000400090019847
:100D7000FFF77CFA4FF4000B584501DA80F0004091
:100D8000DFF8DC80374E4FF07E57404510DA3649A9
:100D90000198FFF7C3FA0399FFF7C0FA2146FFF75E
:100DA00065FA3446A04203D23C46A04200DC044629
:100DB00029460098FFF75AFA584501DA80F00040BA
:100DC000404510DA28490098FFF7A8FA0399FFF781
:100DD000A5FA2946FFF74AFA3546A84203D23D460E
:100DE000A84200DC054621460198FFF73FFA044679
:100DF00029460098FFF73AFA03461C481C498442EA
:100E000001D3024604E08C4201DD0A4600E022469E
:100E1000834204D28B4201DD084600E018460546B5
:100E20000D48564624300168446881F00043CDE9FE
:100E300000A9A0F57971039804F05AF8CDE900698A
:100E40002A4623460B49039804F052F805B0BDE842
:100E5000F08F00003802002068350020000020419B
:100E60000000A040000080BFCDCC4C3E0000C8C1B7
:100E70000000C841683200202DE9F0410024134EE3
:100E80002746E1B2032006F08FFA022537700321CE
:100E9000342006F097FA052000F0BEFD307838B116
:100EA00021460BA006F076FDBDE8F04104F008BA3B
:100EB0006D1EEBD1641C7F2CE3DB0BA006F06AFDFA
:100EC000BDE8F0410EA006F065BD000080020020E4
:100ED00066696E6420253032582061646472207324
:100EE000656E736F720D0A0063616E206E6F742001
:100EF00066696E642073656E736F720D0A00000080
:100F0000706C6561736520636865636B20796F75CC
:100F10007220636F6E6E656374696F6E0D0A0000F8
:100F2000FEE70020704700207047000010B5002247
:100F30000449054804F00EFF0449034804F004FF87
:100F4000002010BD402800207C1F002040240020ED
:100F500010B50146034804F0F7FE024804F0D8FE3D
:100F6000002010BD7C1F00200FB42DE9F05F00258C
:100F7000AA462F46A9462C462E46AB46A8460BA8A5
:100F80001EE0491C613A0A91072A19D2DFE802F0F3
:100F90000406090F1113160020C811E050F804AB25
:100FA0000EE017B150F8049B0AE080C808E010C8B2
:100FB00006E040C804E050F804BB01E050F8048BA0
:100FC0000A990A78002ADCD13D480121006807F01F
:100FD00071FBE0BB3B488DB1B0F858102980B0F8E8
:100FE0005A106980B0F85C10A980B0F85E10E980F2
:100FF000B0F860102981B0F862106981BAF1000F71
:1010000008D0426ECAF80020826ECAF80420C26E70
:10101000CAF808202FB1016F3960416F7960816F84
:10102000B960B9F1000F0AD0C26FC9F80020D0F83A
:101030008020C9F80420D0F88420C9F80820BBF12A
:10104000000F0FD05FF0000100EB410200E02EE046
:10105000B2F8F0300BEB4102491CC9B2A2F868307B
:101060000C29F1D35CB1416861608168A160C168FD
:10107000E160C169E161016A2162416A61623EB178
:10108000016C3160416C7160816CB160416D716166
:10109000B8F1000F0BD0D0F8A821C8F80020B0F8A4
:1010A000AC21A8F80420B0F8AE11A8F80610044846
:1010B000006807F075FBBDE8F01F5DF814FB000049
:1010C00018000020C03600200FB42DE9F05F002585
:1010D000AA462F46A9462C462E46AB46A8460BA844
:1010E0001EE0491C613A0A91072A19D2DFE802F092
:1010F0000406090F1113160020C811E050F804ABC4
:101100000EE017B150F8049B0AE080C808E010C850
:1011100006E040C804E050F804BB01E050F8048B3E
:101120000A990A78002ADCD13D480221006807F0BC
:10113000C1FAE0BB3B488DB12988A0F858106988F6
:10114000A0F85A10A988A0F85C10E988A0F85E10F1
:101150002989A0F860106989A0F86210BAF1000F1F
:1011600008D0DAF800104166DAF804108166DAF87F
:101170000810C1662FB13968016779684167B9689D
:101180008167B9F1000F0AD0D9F80010C167D9F80A
:101190000410C0F88010D9F80810C0F88410BBF112
:1011A000000F0FD05FF000010BEB410200E02EE0DA
:1011B00000EB4103491CB2F86820C9B2A3F8F02043
:1011C0000C29F1D35CB161684160A1688160E1687C
:1011D000C160E169C161216A0162616A41623EB137
:1011E0003168016471684164B16881647169416505
:1011F000B8F1000F0BD0D8F80010C0F8A811B8F85B
:101200000410A0F8AC11B8F80610A0F8AE1104480C
:10121000006807F0C5FABDE8F01F5DF814FB000098
:1012200018000020C03600207FB51C49A1F118002D
:10123000A0F14005A0F16402CDE90025CDE902014D
:10124000A0F158031832883915A0FFF78DFE134A14
:10125000154E05F14003A2F18801304606F064F90D
:1012600002F09EFF04460146304602F0D9FF2146B7
:101270003046FFF735FD21463046FFF7B7FC2246E2
:101280003046696AFFF75AFC22463046696AFFF722
:10129000EFFBBDE87F4003F007BB0000F035002006
:1012A00061626363646567006F12033B10B50023DE
:1012B000104A15E0362809D039280BD03C2812D026
:1012C00014783F2813D044F0800406E0147844F0EA
:1012D000010402E0147844F002041470401C5B1C0A
:1012E0008B42E7D310BD147844F00804F5E744F0CE
:1012F0000404F2E780020020014800F0F3B9000086
:101300002C04002030B590F840500124AC40C56B4F
:101310006C60046863604368102B036803D09960B5
:101320000068C26030BD9A600068C16030BD70471F
:1013300000F072BB802000F0A7BB000010B5144C79
:1013400014492278DAB1012A1DD00023022A237021
:1013500014D188700A784978120402EB01210844FC
:10136000FFF761F80C49FFF70BF8014609483430E4
:1013700002F02AFF074834308068606010BD012207
:101380002270087010BD02222270487010BD00004B
:10139000B8020020B03E002000007A4408B5A0202A
:1013A0008DF800004FF6FF7301226946014802F0F4
:1013B000EDFC08BDD804002072B6FEE710B5502140
:1013C000032005F0F1FF0849084805F0DFFF084851
:1013D00006F0A0F8074805F0CFFF074806F0DAFA54
:1013E000BDE81040FFF748BDAD40000817410008B8
:1013F000AD12000831130008F0AC00082DE9F05FD1
:10140000524D53496888401C688052A0FFF7ACFDDC
:101410000C21342005F0D6FF287800287ED0DFF894
:1014200030B10024ABF148086FF00E0708F10C0949
:1014300008F1180A0BEB440636F9680FFEF7EAFFCD
:101440003946FEF7DBFF0421FEF7D8FF48F82400F9
:10145000B6F90600FEF7DEFF3946FEF7CFFF3E493C
:10146000FEF75CFF49F82400B6F91200FEF7D2FF40
:101470003946FEF7C3FF3949FEF750FF4AF824000A
:10148000641CE4B25146032CD4D3314A08460C3ACA
:101490004968116003685360DAF808009060A2F1AF
:1014A0001800D8F804404460D8F800400460D8F828
:1014B0000820826000F10C02D9F804405460D9F889
:1014C00000401460D9F8080090602548002281424D
:1014D00007DC834205DC6C88C82C02D36C78012CB5
:1014E0002DD0814201DC834200DD6A80184B1DA0B3
:1014F000243B03F10C0202F10C01FFF7E5FD287813
:10150000C00703D0287820F00100287028788007D1
:1015100003D5287820F00200287000E00DE028783C
:10152000400703D5287820F00400287028780007A9
:1015300003D5287820F008002870BDE8F09F0A48FD
:101540006A700221006807F005F8CFE780020020EA
:10155000043A0020660000000000FA440000344312
:101560000000A041626363002400002010B590F8E1
:1015700021100022022905D00421816380F8202057
:10158000012010BD01680B6823F00E030B60016899
:101590000B6823F001030B6090F84030C46B01210D
:1015A00001FA03F3636080F8211080F820201046D0
:1015B00010BD00002DE9F05F90F8211000240229F1
:1015C00003D004218163012485E001680A6822F0C8
:1015D0000E020A6001680A6822F001020A603F4EAA
:1015E0003E4FB215DFF8F4C0DFF8F090DFF8ECA062
:1015F000DFF8E8B0DFF8E4E00168783F1301150296
:10160000ACF1640CA9F15009AAF13C0AABF1280B2A
:10161000AEF1140E4FF48018B14227D9B9420ED062
:10162000614512D049451DD0514518D0594518D0B3
:10163000714501D1424615E0294EB14201D1012246
:1016400010E0274E1436B14201D110220AE0244E98
:101650002836B14206D0224A3C32914201D11A4684
:1016600000E02A461E49091F0A602BE0B94213D048
:10167000614517D0494522D051451DD059451DD04F
:10168000714501D142461AE0B14202D14FF0807259
:1016900015E0134EB14201D1012210E0104E143674
:1016A000B14201D110220AE00D4E2836B14206D0D7
:1016B0000B4A3C32914201D11A4600E02A460749C2
:1016C00080394A60012180F82110002180F8201023
:1016D000416B01B188472046BDE8F09F8000024081
:1016E000080402402DE9F05FC16B0A6801680B68CD
:1016F000046C4FF0040808FA04F8844D844E854FBA
:10170000DFF814C2DFF81492DFF814A2DFF814B285
:10171000DFF814E218EA020F65D05FEA437862D579
:101720000A68920603D40A6822F004020A60DFF80D
:10173000F0814FF48062016808F11408130114026B
:10174000414524D9A9420DD0B1420FD0B9421AD097
:10175000614515D0494515D0514501D1120312E01C
:10176000594501D104220EE0714501D140220AE021
:101770006D4D1435A94206D06B4A2832914201D1F1
:101780001A4600E022466749091F0A6029E0A9427B
:1017900013D0B14215D0B94220D061451BD0494584
:1017A0001BD0514502D14FF4800217E0414502D1D0
:1017B0004FF0806212E0594501D104220EE07145DC
:1017C00001D140220AE0584D1435A94206D0564AAC
:1017D0002832914201D11A4600E022464B4908398D
:1017E0004A60C16A71E04FF0020808FA04F818EA8A
:1017F000020F70D05FEA83786DD50A68920606D42E
:101800000A6822F00A020A60012180F82110DFF83C
:1018100010814FF40072016808F1140813011402DA
:10182000414524D9A9420DD0B1420FD0B9421AD0B6
:10183000614515D0494515D0514501D1120312E03B
:10184000594501D102220EE0714501D120220AE062
:10185000354D1435A94206D0334A2832914201D180
:101860001A4600E022462F49091F0A6029E0A942D2
:1018700013D0B14215D0B94220D061451BD04945A3
:101880001BD0514502D14FF4001217E0414502D15F
:101890004FF0007212E0594501D102220EE071456D
:1018A00001D120220AE0204D1435A94206D01E4A5B
:1018B0002832914201D11A4600E0224613490839E4
:1018C0004A60002180F82010816A00291CD0BDE800
:1018D000F05F0847FFE70825A540154214D01A0716
:1018E00012D50A6822F00E020A6090F84020C36BFD
:1018F000012101FA02F25A60816380F8211000216F
:1019000080F82010016BE0E7BDE8F09F080002407E
:101910001C000240300002404400024058000240D7
:101920006C000240080402401C04024030B560B163
:101930001A4B026814219A4209D2194B1344B3FB83
:10194000F1F18900016417490AE0012030BD134B11
:101950005B421344B3FBF1F1890001640F4908397C
:10196000C163022180F82110136843F6F0718B43A4
:10197000F0E901142143D0E902452C4321430469D5
:1019800021434469214384692143194311600021A3
:101990004163012242770177084630BD08040240C6
:1019A000F8FFFDBF0000024070B5044690F820002B
:1019B000002501280CD0012084F8200094F8216033
:1019C0000020012E06D084F820000225284670BD94
:1019D000022070BD022684F82160A063206806689A
:1019E00026F0010606602046FFF78CFCE06A00281E
:1019F0002068016802D041F00E0106E021F00401E8
:101A000001602068016841F00A01016020680168F6
:101A100041F001010160D9E770B5044600F046F9D4
:101A20000546601C02D004480078044400F03EF9EA
:101A3000401BA042FAD370BD3C00002010B58028A6
:101A40001BD10E4B19680E48002241601A60438872
:101A5000012B0BD103880B4C5B1C9BB204EB4304A2
:101A6000038024F8021C082B00D3428040F60203B6
:101A7000994202D301214180028010BD2408004018
:101A800088020020603B0020044910B50A68024229
:101A900002D00860FFF7D2FF10BD0000140401401F
:101AA0002DE9F84FDFF8C8910024A9F1040B234673
:101AB0000F2709F1040AABF1040ED1E00125A5407E
:101AC00006EA0502AA4276D1DFF8A8C14E68A6EB65
:101AD0000C0866452BD00DDC032E34D005DC36B364
:101AE000012E19D0022E2FD11BE0112E16D0122E4E
:101AF0002AD119E0B8F5881F19D006DCB8F5803F67
:101B000015D0B8F5801F1FD111E0B8F5001F0ED019
:101B1000B8F5041F18D10AE0CB6815E0CB681B1D8F
:101B200012E0CB6808330FE0CB680C330CE08B6815
:101B30002BB1012B4FF0080303D0456104E00423CF
:101B400002E0056100E00023FF2A01D8064601E01B
:101B500000F104064FEA840501D9A5F12005D6F865
:101B6000008007FA05FC28EA0C0803FA05F548EAA4
:101B70000508C6F800804D68ED0070D53E4DAE6991
:101B800046F00106AE61AD6924F0030605F00105DB
:101B900000953A4D06EB050CDCF80850A607360F09
:101BA00007FA06F825EA0805DFF8D480404503D196
:101BB0004FF0000825E052E0DFF8C880404502D130
:101BC0004FF001081DE0DFF8C080404502D14FF022
:101BD000020816E0DFF8B480404502D14FF0030858
:101BE0000FE0DFF8AC80404502D14FF0040808E078
:101BF000DFF8A080404502D14FF0050801E04FF02A
:101C0000060808FA06F848EA0508CCF808804D6886
:101C1000D9F80060ED024D4601D5164300E0964329
:101C20002E604D68DAF80060AD02554601D51643C6
:101C300000E096432E604D68DBF80060AD035D4622
:101C400001D5164300E096432E604D68DEF8006033
:101C5000ED03754601D5164300E096432E60641CE3
:101C60000A681646E2407FF429AFBDE8F88F00000D
:101C70000804014000001110001002400000014063
:101C800000080140000C0140001001400014014018
:101C900000180140001C01408068084000D001206D
:101CA00070470AB1016170470904FBE70148806889
:101CB000704700003C00002002488168027811440F
:101CC000816070473C000020074810B5016841F072
:101CD00010010160032000F0A7F80F2000F006F8C3
:101CE00000F050F8002010BD0020024030B505463D
:101CF0001F4887B0C16941F01001C161C06906A9E0
:101D000000F01000009001A800F068FE0498B0B147
:101D100000F084FE40001749174AB0FBF1F1174864
:101D2000491E0260416040F2E7320021C0E9032110
:101D30008160816101F0B2F8040003D015E000F089
:101D40006DFEE8E70D4801F07BF904000DD1362067
:101D500000F03CF8102D07D200222946362000F072
:101D600043F80748056000E0012407B0204630BD75
:101D70000010024040420F000010004060060020AA
:101D8000400000200F4808B5816941F001018161E0
:101D9000816901F001010091C16941F08051C16187
:101DA000C069002200F0805000900F21901E00F0CA
:101DB0001BF80548416821F0E06141F00071416085
:101DC00008BD00000010024000000140002809DBAF
:101DD00000F01F02012191404009800000F1E02045
:101DE000C0F8001170470000F0B40E4B1B680C46A1
:101DF000C3F30223C3F10705042D00D90425191DDF
:101E0000072901D2002300E0DB1E012606FA05F1B6
:101E1000491E214099409E40761E16403143F0BC39
:101E200005F0DEBD0CED00E0064900F00702086891
:101E30004FF6FF03184040EA0220034A10430860AF
:101E4000704700000CED00E00000FA0510B50C062C
:101E500007D501F0070101EB810100EBC10028303B
:101E600005E001EB810100EBC10000F5B47099B20F
:101E700032B1012202730181190C4181002010BD91
:101E800000220273C180F9E7704701EB810200EB89
:101E9000C202D0F8EC02D26B04F04DB901EB810222
:101EA00000EBC202D0F8EC02D2F87C2104F0A6B913
:101EB00070B504460B0601F0070000EB800104EB4F
:101EC000C1014FF001024FF0000503D581F8292030
:101ED000283103E081F8695101F5B471087094F874
:101EE000A802012808D084F8A822206804F0E8FDA0
:101EF00084F8A852002070BD022070BD70B5044661
:101F000001F00F006268904201D9012070BD0B06FC
:101F100001F0070000EB800104EBC1014FF001026A
:101F20004FF0000503D581F82920283103E081F81E
:101F3000695101F5B4718D70087094F8A8020128F8
:101F400008D084F8A822206804F057FE84F8A8522C
:101F5000002070BD022070BD2DE9F05F04685FEACB
:101F6000424C0B788D69B4F850C04FF000064BF628
:101F70008F7948F2800A48F68F7B48F2C00E4FF402
:101F800080672AD54FF0020808EBC308C44407EB6A
:101F90004C07E45BC4F30904A54203D32D1B8D61F8
:101FA00001D00BE08E61066836F8235005EA09057A
:101FB00085F4005545EA0A0526F82350520609D54E
:101FC0000D78036833F8252002EA0B0242EA0E027C
:101FD00023F8252084B30A8929E04FF0060808EB8E
:101FE000C308C44407EB4C07E45BC4F30904A542EF
:101FF00003D32D1B8D6101D00BE08E61066836F88E
:10200000235005EA090585F4005545EA0A0526F836
:102010002350520609D40B78056835F8232002EACC
:102020000B0242EA0E0225F823202CB14A894969A5
:102030000068234605F0BAF82046BDE8F09F2DE978
:10204000F05F054600680C465FEA426C16468B69F5
:102050002278B0F850C048F68F774CF280094FF4E0
:10206000004B4FF6FF7E4FF4806A4FF0000172D5AF
:102070004FF0020808EBC208E0440AEB480C30F8C5
:102080000C00C0F30900834211D91B1AA3610FD0C1
:10209000730407D52E6836F822303B4043EA090323
:1020A00026F8223094F82420012A47D052E1A16179
:1020B000607810B1012813D01AE02868B0F85030C9
:1020C000184400EB0210B0F80424C2F30902A0F88F
:1020D0000424B0F8042442F40042A0F8042407E0E9
:1020E0002868B0F85030184400EB0210A0F804142F
:1020F0006278286812B1012A11D018E0B0F85010A7
:102100000844217800EB0110B0F80C14C1F3090168
:10211000A0F80C14B0F80C1441F4004105E0B0F83C
:1021200050201044227800EB0210A0F80C14217803
:102130002846FFF7AAFE700472D40BE162690244DC
:102140006261E2690244E2612369226A9A4203D32E
:102150001846111A04E03EE084F824100AB1104633
:102160002162617811B1012929D031E02968B1F8E3
:1021700050201144227801EB0211B1F80424C2F37B
:102180000902A1F8042401F204413E2807D94209BA
:10219000C30600D1521E0B884BEA822207E048B1E9
:1021A0004208C30700D0521C0B880EEA8222134358
:1021B0000B800DE00A8842F400420A8008E029689A
:1021C000B1F850201144227801EB0211A1F8040467
:1021D00083B22289BAE04FF0060808EBC208E04457
:1021E0000AEB480C30F80C00C0F30900834211D30D
:1021F0001B1AA3610FD0730407D42E6836F822305F
:102200003B4043EA090326F8223094F82420012AAF
:1022100051D09FE0A161607818B1012814D01BE073
:102220003FE02868B0F85030184400EB0210B0F8D6
:102230000424C2F30902A0F80424B0F8042442F4F0
:102240000042A0F8042407E02868B0F85030184491
:1022500000EB0210A0F804146278286812B1012A79
:1022600011D018E0B0F850100844217800EB0110AC
:10227000B0F80C14C1F30901A0F80C14B0F80C1458
:1022800041F4004105E0B0F850201044227800EB02
:102290000210A0F80C1421782846FFF7F6FD700410
:1022A00058D42278296831F82200384040EA0900E1
:1022B00021F822004EE0626902446261E269024450
:1022C000E2612369226A9A4203D31846111A2162F5
:1022D00004E00AB11046216284F82410627829686B
:1022E00012B1012A28D02FE0B1F8502011442278F1
:1022F00001EB0211B1F80C24C2F30902A1F80C247D
:1023000001F20C413E2807D94209C30600D1521EF2
:102310000B884BEA822207E048B14208C30700D08D
:10232000521C0B880EEA822213430B800CE00A88B1
:1023300042F400420A8007E0B1F8502011442278AC
:1023400001EB0211A1F80C04628983B2616928686B
:1023500004F04AFF2278296831F8220048F6BF735A
:10236000184080F0300048F28003184321F8220022
:102370000020BDE8F09F01F0070101EB810100EBB7
:10238000C100D0F8840170472DE9F04104460F06E2
:1023900001F0070000EB800104EBC1014FF00106E2
:1023A0004FF0000503D581F82960283103E081F85A
:1023B000695101F5B471022B08700A61CB7000D12C
:1023C0000D7194F8A802012809D084F8A862206849
:1023D00004F026FA284684F8A852BDE8F0810220CD
:1023E000FBE710B501F0070404EB840100EBC10129
:1023F000C1E95F230022C1F8842181F8692181F8B5
:102400006841006801F5B47104F04CFC002010BD77
:1024100070B504460D4601F007006168884201D995
:10242000012070BD29064FF000064FF0010207D5CC
:1024300000EB800104EBC10181F82920283107E07D
:1024400005EB850104EBC10181F8696101F5B47107
:102450008A70087094F8A802012807D084F8A8228E
:10246000206804F006FC680702D006E0022070BD78
:1024700004F52C71206804F0BEFB84F8A8620020EB
:1024800070BD10B501F0070404EB840100EBC1013D
:10249000C1E90F23012281F84C208B6400234B6497
:1024A00081F8292001F8284F006804F0FBFB002088
:1024B00010BD00001FB50446006804F073FE01045F
:1024C00003D5204602F03EFB1FBD41050DD5206817
:1024D00030F8441F21F480610180204600F010F99B
:1024E0000021204600F027F91FBD410405D52068D2
:1024F00030F8441F21F4804174E0810405D5206840
:1025000030F8441F21F400516CE0C10414D5206858
:1025100030F8401F21F004010180206830F8401F8E
:1025200021F008010180204600F0FDF8206830F815
:10253000441F21F4805155E0010540D5D4F8002016
:102540000020694632F8203021F81030401CC0B21B
:102550000828F7D332F8400F40F0010010802068BF
:1025600030F8402F22F0010202802068B0F84420A9
:102570005205FBD530F8442F22F4806202800020FF
:10258000236831F8102023F82020401CC0B208280E
:10259000F6D3206830F8401F41F008010180206820
:1025A00030F8441F21F400610180206830F8401F9A
:1025B00041F004010180204600F0F2F81FBD8105C2
:1025C00009D5206830F8441F21F4007101802046AD
:1025D00000F0ADF81FBDC005FCD5206830F8441FE1
:1025E00021F4807101801FBD2DE9F04186B0040007
:1025F00004D094F8A902002520B108E0012006B01B
:10260000BDE8F08184F8A852204600F05BF8032072
:1026100084F8A902206804F0E7FA04F110011422FA
:1026200088466846FDF7FEFD94E80F0004F046FA80
:102630000227D0BB0021206804F0CEFD0020012637
:102640000EE000BF00EB800104EBC10181F82960BE
:1026500001F8280F401CCD700D614D61C0B28D6135
:1026600061688142EED8002012E000BF00EB8001DB
:1026700004EBC10181F8695181F8680181F86B515F
:10268000C1F87851C1F87C51401CC0B2C1F88051EA
:1026900061688142EAD8142241466846FDF7C2FDCE
:1026A00094E80F0004F097FA10B184F8A972A5E736
:1026B00084F8245084F8A962206804F08AFA002083
:1026C0009DE7000008B500680B49884212D10B480D
:1026D000C16941F40001C161C069002200F4000039
:1026E000009005211420FFF77FFBBDE8084014206F
:1026F000FFF76CBB08BD0000005C0040001002400A
:1027000070B5044680680125022801D0FEF754FE0A
:102710002946D4F8EC0203F05AFED4F8EC02BDE8E6
:10272000704003F016BED0F8EC0203F03ABED0F8C9
:10273000EC0203F040BE10B5044690F8A802012850
:102740000BD0012084F8A80284F82410206804F03B
:1027500045FD002084F8A80210BD022010BDD0F86D
:10276000EC2200F52C71104603F03DBE10B5044676
:1027700090F8A802012810D0012084F8A80220684F
:1027800004F001FD01212046FFF77EFB206804F0E4
:102790001EFA002084F8A80210BD022010BD00001F
:1027A00010B50446D0F8EC0203F05CFEA0690028E6
:1027B00004D00348016841F00601016010BD00002B
:1027C00010ED00E02DE9F84305460078354CC007D0
:1027D00054D0E0690026C00008D4E06940F0805081
:1027E000E061E069012600F0805000902E48016809
:1027F000C90512D40168804641F480710160FFF779
:1028000055FA074605E000BFFFF750FAC01B6428E1
:1028100023D8D8F80000C005F6D5206A10F440701F
:1028200021D0A98801F4407181421CD0206A1F493F
:10283000012220F440700A6000220A602062C00772
:1028400011D0FFF733FA074641F2883808E000BF9D
:10285000FFF72CFAC11B414502D90320BDE8F883DC
:10286000206A8007F4D5206A696820F44070084324
:1028700020621EB1E06920F08050E0612878800776
:1028800005D56068A96820F4404008436060287856
:10289000C00605D56068696920F48000084360605F
:1028A0000020DBE70010024000700040400442427C
:1028B0002DE9F0470F46050061D0434E306800F027
:1028C0000700B84209D2306820F007003843306072
:1028D000306800F00700B84251D128683B4C8107AE
:1028E00012D5400703D5606840F4E0606060287846
:1028F000000703D5606840F4605060606068A968B4
:1029000020F0F000084360602878C00728D068688D
:10291000012810D02168022810D0890700292EDA5A
:10292000616821F0030101436160FFF7BFF9804650
:1029300041F288390DE021688903EFE78901EDE76D
:10294000FFF7B4F9A0EB0801494502D90320BDE81F
:10295000F0876068696800F00C00B0EB810FEFD180
:10296000306800F00700B8420BD9306820F007004B
:1029700038433060306800F00700B84201D00120D1
:10298000E5E72878400705D56068E96820F4E0604D
:10299000084360602878000706D56068296920F43C
:1029A000605040EAC100606000F058F86168084A71
:1029B000C1F30311515CC84006490860064800682D
:1029C000FFF794F90020C2E7002002400010024007
:1029D000DEA9000848000020400000200F2202600D
:1029E0000C4A536803F003034360536803F0F00399
:1029F0008360536803F4E063C36052684FF4E0639C
:102A000003EAD20202610448006800F0070008608F
:102A100070470000001002400020024004480549B1
:102A200000684968044AC1F30221515CC8407047FC
:102A30004800002000100240EEA9000804480549A3
:102A400000684968044AC1F3C221515CC84070471C
:102A50004800002000100240EEA900080E4A51680C
:102A60000E4801F00C03042B11D0082B0FD10C4899
:102A7000C1F38343C903C05C0AD55168084AC1F356
:102A80004041921E515C054A5043B0FBF1F0704743
:102A900004494843704700000010024000127A00C9
:102AA000CEA9000800093D002DE9F84F040070D0C0
:102AB0002078C04DC00749D06868C0F38100012864
:102AC00007D06868C0F38100022809D16868C00394
:102AD00006D52868800339D560680028E7D035E03E
:102AE0006068B0F5803F0BD010B1B0F5A02F11D0C9
:102AF000286820F480302860286820F4802002E0D4
:102B0000286840F480302860606890B1FFF7CEF804
:102B100006460AE0286840F480202860F0E700BFFD
:102B2000FFF7C4F8801B642873D828688003F7D5A2
:102B30000CE0FFF7BBF8064605E000BFFFF7B6F86C
:102B4000801B6428F0D828688003F7D420789A4E38
:102B500080074FF001094FF0000839D5686810F080
:102B60000C0F07D06868C0F38100022809D168689B
:102B7000C00306D42868800714D52069012808D12D
:102B800010E02069B0B1C6F80090FFF78FF8074653
:102B900005E00AE1FFF78AF8C01B0228C4D82868BC
:102BA0008007F7D52868616920F0F80040EAC10085
:102BB00028600DE0C6F80080FFF778F8074604E0CB
:102BC000FFF774F8C01B022823D828688007F7D4C1
:102BD000207800072CD57948A169D9B1C0F80090B8
:102BE000FFF764F8074604E0FFF760F8C01B02280F
:102BF0000FD8686A8007F7D571484FF4FA5100681A
:102C0000B0FBF1F0009000BF0098411E0091FAD295
:102C10000EE080E0C0F80080FFF748F8074604E0C7
:102C2000FFF744F8C01B022875D8686A8007F7D4FC
:102C30002078400760D5E8690027C00008D4E8691B
:102C400040F08050E861E869012700F08050009072
:102C50005C480168C90513D40168834641F480715A
:102C60000160FFF723F8824606E000BFFFF71EF879
:102C7000A0EB0A0064284ED8DBF80000C005F5D5AB
:102C8000E06801280AD008B1052813D0286A20F08E
:102C900001002862286A20F0040002E0286A40F05F
:102CA00001002862E06841F2883B98B1FEF7FEFF20
:102CB00082460BE0286A40F004002862EEE700BF7D
:102CC000FEF7F4FFA0EB0A0159455AD8286A80079D
:102CD000F6D50CE0FEF7EAFF824605E0FEF7E6FFD8
:102CE000A0EB0A0159454CD8286A8007F6D41FB1D9
:102CF000E86920F08050E861E06988B36968C1F351
:102D00008101022944D00228C6F8608004D0FEF771
:102D1000CDFF044638E034E0FEF7C8FF074604E084
:102D2000FEF7C4FFC01B02282BD828688001F7D407
:102D3000206AB0F5803F05D16868A16820F40030B2
:102D400008436860D4E908010843696821F47411F4
:102D500008436860C6F86090FEF7A8FF044606E0E6
:102D600025E000BFFEF7A2FF001B022809D8286853
:102D70008001F7D51BE000BFFEF798FF001B02287B
:102D800002D90320BDE8F88F28688001F4D40EE052
:102D90000128F7D06868226A00F48031914204D19A
:102DA000616A00F47010884201D00120EAE7002037
:102DB000E8E7000000100240000042428004424266
:102DC00048000020007000407047704710B590F830
:102DD0003C20012A22D0012280F83C20CA688C685D
:102DE00022F4407222434C6822F4806222430C6831
:102DF00022F4006222430C6922F4805222434C697F
:102E000022F400522243C969002322F480420A437B
:102E100001684A6480F83C30002010BD022010BDDB
:102E200070B590F83C20012A2CD0012480F83C4059
:102E3000022280F83D2003685A689D6822F07006DF
:102E40000A6832435A60104B02689A420ED00F4B08
:102E50009A420BD0B2F1804F08D00D4B9A4205D068
:102E60000C4B9A4202D00C4B9A4204D1496825F08F
:102E700080031943916080F83D40002180F83C10A8
:102E8000084670BD022070BD002C01400034014096
:102E90000004004000080040000C004010B5040091
:102EA00003D094F83D0010B107E0012010BD0020D0
:102EB00084F83C00204600F01FF8022084F83D0012
:102EC000211D206802F022FB012084F8460084F8CE
:102ED0003E0084F83F0084F8400084F8410084F804
:102EE000420084F8430084F8440084F8450084F8E4
:102EF0003D00002010BD000038B5054600682F4A8F
:102F00002F49904207D1C86940F00200C861C869E2
:102F100000F0020009E02B4A904208D1C86940F055
:102F20000400C861C86900F00400009038BD264A5A
:102F3000904211D1C86940F00800C861C8690022F8
:102F400000F00800009007213220FEF74DFFBDE899
:102F500038403220FEF73ABF1C4A904207D1C86978
:102F600040F02000C861C86900F02000DDE7184A81
:102F70009042DBD1886940F4005088618869164C22
:102F800000F4005000901348206010206060002082
:102F90008021C4E902014900216189006161202189
:102FA000C4E906102046FEF7C1FC08B1FEF704FA9A
:102FB0002C63AC636C63656238BD000000040040A4
:102FC0000010024000080040000C004000140040C7
:102FD000003401401C0402402C04002090F83D10F5
:102FE000012901D001207047022180F83D100068BE
:102FF0000E4988420ED00E4988420BD0B0F1804F66
:1030000008D00C49884205D00B49884202D00B49B0
:10301000884204D1816801F00701062903D00168C4
:1030200041F001010160002070470000002C0140C8
:10303000003401400004004000080040000C004043
:1030400090F83D10012901D001207047022180F83D
:103050003D100168CA6842F00102CA6000680E496A
:1030600088420ED00D4988420BD0B0F1804F08D075
:103070000B49884205D00B49884202D00A49884250
:1030800004D1816801F00701062903D0016841F0ED
:103090000101016000207047002C01400034014014
:1030A0000004004000080040000C004070B50446D9
:1030B00090F83C000025012817D0012684F83C60D8
:1030C000022084F83D002068826822F0770222F412
:1030D0007F4282600868502838D00DDC20284FD00D
:1030E00005DC90B3102811D14AE0022070BD3028D1
:1030F00046D040280AD13BE060282FD070280DD060
:10310000B0F5805F03D0B0F5005F12D0012584F8E0
:103110003D60002084F83C00284670BDCB68D1E9B2
:103120000121206802F0BAFA2068816841F0770135
:1031300009E0CB68D1E90121206802F0AFFA2068EC
:10314000816841F480418160E1E719E0CA6849681B
:10315000206802F077FB5021206806E0CA684968C1
:10316000206802F080FB6021206802F0A1FACEE71F
:10317000CA684968206802F065FB40212068F4E7CE
:10318000226801461046F0E77047704770B5044664
:10319000006801694FF00005C943890715D4C1686B
:1031A000C943890711D4E91E0161012020772068F5
:1031B00080698007204602D0FFF7E7FF04E000F0B7
:1031C000E7F8204600F07AF9257720680169C943BD
:1031D000490717D4C168C943490713D46FF00401E4
:1031E0000161022020772068806910F4407F20462A
:1031F00002D0FFF7CAFF04E000F0CAF8204600F052
:103200005DF9257720680169C943090716D4C168AB
:10321000C943090712D46FF0080101610420207727
:103220002068C0698007204602D0FFF7AEFF04E0A7
:1032300000F0AEF8204600F041F9257720680169DA
:10324000C943C90617D4C168C943C90613D46FF06E
:1032500010010161082020772068C06910F4407FC8
:10326000204602D0FFF791FF04E000F091F82046DD
:1032700000F024F9257720680169C943C90708D1FE
:10328000C168C943C90704D1891E0161204600F005
:10329000BDFA20680169C943090609D4C168C94358
:1032A000090605D46FF0800101612046FFF78CFD0F
:1032B00020680169C943490609D4C168C943490660
:1032C00005D46FF040010161204600F0A9FA2068A2
:1032D0000169C94389060BD4C168C943890607D46B
:1032E0006FF0200101612046BDE87040FFF76DBD21
:1032F00070BD000010B586B00021009101910291CF
:1033000003911D4A01681D48022491421ED1816922
:1033100041F004018161816901F004010491816936
:1033200041F0080181618069694600F0080004905D
:10333000C020CDE9000412480394FEF7B1FB03203E
:10334000CDE9000469460F48039410E00E4A91420B
:103350000FD1816941F0100181618069694600F0F7
:10336000100004905015CDE9000408480394FEF7BE
:1033700097FB06B010BD00000004004000100240A2
:1033800000080140000C01400034014000100140E1
:10339000704770B5044690F83C0000260D460128A1
:1033A0000FD0012084F83C006AB1042A1DD0082AFD
:1033B0002FD00C2A3FD00126002084F83C00304654
:1033C00070BD022070BD206802F07AF92068816922
:1033D00041F0080181612068816921F00401816167
:1033E000206881692A69114311E0206802F098F988
:1033F0002068816941F4006181612068816921F45C
:1034000080618161206881692A6941EA02218161C4
:10341000D2E7206802F0BAF92068C16941F00801DA
:10342000C1612068C16921F00401C1612068C169DE
:103430002A69114311E0206802F0DCF92068C169B3
:1034400041F40061C1612068C16921F48061C161FA
:103450002068C1692A6941EA0221C161ACE710B55F
:10346000040003D094F83D0010B107E0012010BD26
:10347000002084F83C00204600F01EF8022084F86A
:103480003D00211D206802F041F8012084F846002B
:1034900084F83E0084F83F0084F8400084F841003E
:1034A00084F8420084F8430084F8440084F845001E
:1034B00084F83D00002010BD70470000054A0168F7
:1034C000914206D1007F082803D10C21024800F068
:1034D00037B9704700340140E40300207047000012
:1034E00010B50446022249B104290ED0082913D090
:1034F00094F84100012816D0012010BD94F83E0038
:103500000128F9D184F83E200FE094F83F0001280B
:10351000F2D184F83F2008E094F840000128EBD174
:1035200084F8402001E084F841200122206802F064
:1035300033F813492068134A884201D0904203D1DE
:10354000436C43F400434364206888420DD09042AA
:103550000BD0B0F1804F08D00B49884205D00B4901
:10356000884202D00A49884204D1816801F00701EB
:10357000062903D0016841F001010160002010BD5F
:10358000002C0140003401400004004000080040CD
:10359000000C00402DE9F04117460D0004464FF0A5
:1035A00000060CD0042D11D0082D16D094F841003F
:1035B000022819D094F84100012818D07CE094F832
:1035C0003E00022810D094F83E00F5E794F83F0042
:1035D000022809D094F83F00EEE794F84000022852
:1035E00002D094F84000E7E70220BDE8F081002F08
:1035F00062D0002B60D04A494A4ADFF82CC1022031
:103600004DB1042D18D0082D27D084F841000C2D81
:1036100044D0012681E084F83E00606A8162606ADD
:103620003946C262606AC0F830C02268606A3432CB
:10363000FEF7BAF988BB21E084F83F00A06A8162F6
:10364000A06A3946C262A06AC0F830C02268A06A87
:103650003832FEF7A9F900BB15E084F84000E06AB3
:103660008162E06A3946C262E06AC0F830C022680E
:10367000E06A3C32FEF798F978B909E02068C16841
:1036800041F400711EE02068C16841F4806119E0D6
:103690002068C16841F4006114E00DE0206B816294
:1036A000206B3946C262206BC0F830C02268206BA4
:1036B0004032FEF779F908B1012096E72068C16829
:1036C00041F48051C16001222946206801F064FF65
:1036D00016492068164A884201D0904203D1436CB3
:1036E00043F400434364206888420DD090420BD0DD
:1036F000B0F1804F08D00F49884205D00E4988426A
:1037000002D00E49884204D1816801F007010629E0
:1037100003D0016841F001010160304665E7000017
:10372000B35500081156000849560008002C014006
:10373000003401400004004000080040000C00403C
:1037400070B50D0004464FF0000607D0042D0CD0D4
:10375000082D11D00C2D16D0012648E02068C16834
:1037600021F40071C160606A13E02068C16821F42F
:103770008061C160A06A0CE02068C16821F400612A
:10378000C160E06A05E02068C16821F48051C16031
:10379000206BFDF70FFF00222946206801F0FCFE98
:1037A000184B41F2111120688A10984202D0164B32
:1037B000984209D1036A0B4206D1036A134203D12E
:1037C000436C23F4004343642068036A0B4206D130
:1037D000016A114203D1016821F001010160012059
:1037E0003DB1042D08D0082D09D084F841003046A1
:1037F00070BD84F83E00FAE784F83F00F7E784F8EC
:103800004000F4E7002C0140003401400068034907
:10381000884201D1FEF750BA704700000010004006
:103820007047704770470000F8B5016804460868A3
:10383000CA684B6910F00F0F4FF0000559D003F024
:10384000010602F49077374365D0C10705D0D10552
:1038500003D5616C41F001016164410705D5D907C9
:1038600003D0616C41F002016164810705D5D9077D
:1038700003D0616C41F004016164010707D502F0D7
:103880002001314303D0616C41F008016164616C37
:1038900000293AD0800604D5900602D5204602F0D1
:1038A00040F820684069616CC0F38010090700D4BB
:1038B00060B3204602F00EF820684069400621D52A
:1038C0002068143050E8001F21F0400140E8001249
:1038D000002AF5D1E06BA8B16D494163E06BFDF7BB
:1038E00069FE002811D0E06B416B01B0BDE8F040EB
:1038F000084783060FD593060DD52046BDE8F8404E
:1039000002F00FB82046FFF78DFFF8BD2046FFF705
:1039100089FF6564F8BD266B2023012E7CD1C60685
:103920007AD5D60678D508684868009048694FF07F
:103930000206400640D5E16B086840680004000CB0
:10394000E8D0A28D8242E5D9E085886920282DD073
:1039500020680C3050E8001F21F4807140E800120C
:10396000002AF5D12068143050E8001F21F0010131
:1039700040E80012002AF5D12068143050E8001FFA
:1039800021F0400140E80012002AF5D184F84230CD
:10399000256320680C3050E8001F21F0100140E83A
:1039A0000012002AF5D1E06BFDF7E0FD6663A08D03
:1039B000E18D401A81B22AE0A08DE18D401A81B2DA
:1039C000E08D0028A6D00029A4D022680C3252E84D
:1039D000000F20F4907042E80007002FF5D1206816
:1039E000143050E8002F22F0010240E80027002F99
:1039F000F5D184F84230256320680C3050E8002F60
:103A000022F0100240E80023002BF5D16663204627
:103A1000FFF707FFF8BDFFE705062BD5150629D5EB
:103A200094F841002128F5D1A068B0F5805F01D15C
:103A30002069B0B1206A411C216221680078486089
:103A4000E08C401E0004000CE084E3D12068C168D3
:103A500021F08001C1602068C16841F04001C1606F
:103A6000D8E7206A0088C0F308004860206A801CFC
:103A70002062E5E74006CDD55006CBD5CA68204682
:103A800022F04002CA6084F8413000F0CCF9C1E76E
:103A9000C558000870B5040004D094F84100002512
:103AA00010B106E0012070BD84F84050204600F0BF
:103AB00023F8242084F841002068C16821F40051D3
:103AC000C160204601F08EFF2068016921F4904119
:103AD00001612068416921F02A0141612068C168C3
:103AE00041F40051C1606564202084F8410084F8ED
:103AF00042006563002070BDF0B585B000240094DD
:103B0000019402940394D0F800C0714971486F4F3A
:103B10000D1502220323C614BC4524D1CF6947F4F6
:103B20000027CF61CF6907F4002704978F6947F01A
:103B300010078F61896901F01001CDE90331CDE9EA
:103B4000005269460546FDF7ABFFCDE900646946C2
:103B500028460294FDF7A4FF002206213420FEF738
:103B600043F9342030E0DFF870E10427F4452FD129
:103B7000CD6945F48015CD61CD6905F480150495B6
:103B80008D6945F010058D618D6905F0100504956E
:103B90008D6945F020058D618969039301F020014D
:103BA0000491B902CDE900126946FDF779FFCDE92C
:103BB0000074694649480294FDF772FF002206210D
:103BC0003520FEF711F93520FEF700F905B0F0BDFC
:103BD000DFF80CE14348F44525D18E6946F4804670
:103BE0008E618E6906F4804604968E6946F004065E
:103BF0008E618969039301F0040104914115CDE9B7
:103C0000001269460646FDF74BFFCDE900546946B0
:103C100030460294FDF744FF002205212520FEF7DF
:103C2000E3F82520D0E7DFF8C0E0F44525D1CD69E1
:103C300045F40035CD61CD6905F4003504958D69F5
:103C400045F004058D618969054601F00401CDE95F
:103C50000331CDE900726946FDF722FF0820CDE966
:103C60000004694628460294FDF71AFF0022062147
:103C70002620FEF7B9F82620A6E71C488445A5D1E2
:103C8000C86940F48020C861C86900F480200490AD
:103C9000886940F0080088618869CDE9005200F029
:103CA0000800CDE90330124D69462846FDF7F8FEBD
:103CB000CDE90064694628460294FDF7F1FE002232
:103CC00006212720FEF790F827207DE7004C0040D2
:103CD000001002400010014000500040001401405C
:103CE0000038014000080140004400400048004006
:103CF000000C014090F84230202B01D00220704788
:103D000021B11AB10023036301F0C8BE012070473E
:103D100070B5044600681949194D884202D1687986
:103D200000F07CFE17492068884202D1287AFDF70E
:103D300005FB13490122491D1348FFF7DBFF10491A
:103D400011480122891D4830FFF7D4FF0C490E4865
:103D50000122C91D9030FFF7CDFF09490A48012211
:103D600008319038FFF7C6FF0549BDE870400648A6
:103D7000012209314838FFF7BDBF0000003801407B
:103D800030000020004C0040200500202DE9F843C1
:103D9000044690F841001F4616460D46202802D0E2
:103DA0000220BDE8F8837DB176B100206064212057
:103DB00084F84100FDF77AFFA6848046E684A06877
:103DC000B0F5805F02D003E00120EAE7206910B17E
:103DD0002E4600250EE000260CE08021204601F052
:103DE00078FEA0B9AEB116F8010B21684860E08CEE
:103DF000401EE084E08C43464FF00002009700280C
:103E0000EBD14FF04001204601F063FE30B10320BA
:103E1000C7E735F8020BC0F30800E6E7202084F876
:103E200041000020BDE77047FEE7000010B500F03C
:103E300087F80C4C002280212046FDF732FF02203B
:103E400004F033FA012240212046FDF72AFF022028
:103E500004F02BFA20460022BDE810404021FDF777
:103E600020BF0000000C014000F06AB810B50F4CF4
:103E7000002240212046FDF714FF00F061F80122E6
:103E800080212046FDF70DFF022004F00EFA0122EA
:103E900040212046FDF705FF022004F006FA2046E7
:103EA0000022BDE810404021FDF7FBBE000C0140A0
:103EB0002DE9F041002507462C4600F031F8174E59
:103EC000002240213046FDF7ECFE022004F0EDF91F
:103ED000012240213046FDF7E4FE6006040E8021F9
:103EE0003046FDF7D9FE08B144F00104022004F089
:103EF000DCF96D1CEDB2082DE2D3002240213046E2
:103F0000FDF7CFFE3FB1FFF791FF00BF00F018F8BB
:103F10002046BDE8F081FFF7A9FFF7E7000C01405C
:103F20001FB5002001900390802000900120029096
:103F300069460248FDF7B4FD1FBD0000000C0140BA
:103F40001FB58020009011200190012002900320D5
:103F5000039069460148FDF7A3FD1FBD000C014019
:103F600070B505460024FFF7EBFF154E00224021F7
:103F70003046FDF796FE280601D5012200E000221A
:103F800080213046FDF78DFE6806050E022004F004
:103F90008CF9012240213046FDF783FE022004F017
:103FA00084F9641CE4B2082CE0D30022402130469E
:103FB000FDF777FEBDE87040022004F076B90000FE
:103FC000000C014010B5FFF7BBFF0E4C0122802111
:103FD0002046FDF766FE012240212046FDF761FEE6
:103FE000022004F062F9002280212046FDF759FEEC
:103FF000022004F05AF920460022BDE8104040217A
:10400000FDF74FBE000C014010B5FFF799FF0C4CB7
:10401000002280212046FDF744FE022004F045F9ED
:10402000012240212046FDF73CFE022004F03DF92C
:1040300020460122BDE810408021FDF732BE00007D
:10404000000C014070B5184D002401228021284643
:10405000FDF727FE012004F028F9FFF761FF01209A
:1040600004F023F9012240212846FDF71AFE022020
:1040700004F01BF909E0641CE4B2FA2C05D9FFF73F
:10408000C3FFFFF75DFF012070BD80212846FDF7CB
:1040900003FE0028EFD1002240212846FDF701FE53
:1040A000FFF74EFF002070BD000C01402DE9F041EC
:1040B0001D461646884607460024FFF783FF38460C
:1040C000FFF74EFFFFF7BEFF012812D04046FFF773
:1040D00047FFFFF7B7FF01280BD0FFF773FF7F1CE7
:1040E000F8B2FFF73DFFFFF7ADFF012801D06F1ECB
:1040F0000BE00020BDE8F081BC4201D0012000E0CF
:104100000020FFF7D5FE3055641CAC42F4D3FFF716
:104110007BFF0120EEE72DE9F0411D46164688465B
:1041200007460024FFF74EFF3846FFF719FFFFF759
:1041300089FF012816D04046FFF712FFFFF782FFE4
:1041400001280FD007E0305DFFF70AFFFFF77AFF85
:10415000012807D0641CAC42F5D3FFF755FF0120BE
:10416000BDE8F0810020FBE7F0B500230A243025EC
:1041700037261F4611E000BFB4EB107F02D905EBD4
:10418000107C01E006EB107C01F813C001EB430C3E
:1041900000015B1C8CF80170DBB29342ECD3F0BDE4
:1041A000084840F2E732B0F90A10A1F2DD5191421D
:1041B00005D2B0F90400B42801DB002070470120CB
:1041C00070470000683500202DE9F041884604461C
:1041D000876801690068FCF749F860600646616914
:1041E000FCF744F801463046FCF7CAF80546E060A3
:1041F00039464046FCF78CF82946FCF78FF83946DB
:10420000FCF734F8A06029464FF07E50FCF780F8A8
:104210003146FCF783F82060BDE8F08105F04CBB27
:104220002DE9F34F34480F4600F1880483B041680C
:104230002160324D80686060A4F1AC082E68D8F827
:1042400000003146FCF764F882462D490398FCF7DC
:1042500065F801464FF07E594846FCF791F849460B
:10426000FCF704F801464846FCF78AF881465146B7
:10427000FCF754F83146FBF7F9FF28606E68D8F870
:1042800004003146FCF744F801464846FCF746F87E
:104290003146FBF7EBFFA4F130066860B6F9040085
:1042A000FCF7B8F8E060B6F90600FCF7B3F80026B2
:1042B000B346A046A946A4F50E7A2061CDE900B721
:1042C00008EB860406EB46010AEB411158F826205C
:1042D0000D46E368039800F00BFE59F826000949E3
:1042E000FCF71CF8696BFBF7C1FF761CA061022E7E
:1042F000E4DB05B0BDE8F08F9835002054020020C3
:104300003433FB418FC2F53C094808B5416941F09F
:10431000020141614069002200F002000090052185
:104320003920FDF761FDBDE808403920FDF74EBD9D
:104330000010024010B5264804F0F2F9254CA061A7
:104340002348103004F0ECF9E0612148203004F0FB
:10435000E7F91F4B2062303B002201211E4804F088
:104360009FFA1B4BE060203B002201211B4804F018
:1043700097FA174B2061103B00220121184804F0E6
:104380008FFA134A60619C3A0021164804F036FA0D
:104390000F4A2060783A0021134804F02FFA0C4AA3
:1043A0006060543A0021114804F028FAA0600848DF
:1043B000303004F0ADF860620548403004F0A8F8F1
:1043C000A0620348503004F0A3F8E06210BD000082
:1043D0006CA90008000000208B58000841730008F9
:1043E0001D4200081D540008B1520008A5580008DD
:1043F00030B585B0002424480094019402940394BD
:10440000816941F020018161816901F020010491FD
:10441000816941F004018161816901F00401049125
:10442000816941F008018161816901F0080104910D
:10443000816941F0100181618069144D00F0100024
:1044400004900022C0212846FDF72BFC802000901C
:104450000F48CDE9010469460E48FDF721FBC02055
:1044600000900120CDE9010402200390694628460E
:10447000FDF716FB002206211720FDF7B5FC1720DB
:10448000FDF7A4FC05B030BD00100240000C014057
:10449000000021100010014010B58EB000240794D8
:1044A000089409940A940B941C2168460C94FBF719
:1044B000D2FE2A48284901604721C0E9011444F688
:1044C0001F61C0E903148461FEF7E8FC08B1FCF742
:1044D00073FF4FF48050079007A92048FEF7E6FDD0
:1044E00008B1FCF769FF1D48FEF7B9FF08B1FCF7FA
:1044F00063FF0B940BA919480C94FEF791FC08B1CB
:10450000FCF75AFF6020CDE90004029400226946BE
:1045100012480494FEF73DFF08B1FCF74DFF04225A
:1045200069460E48FEF735FF08B1FCF745FF082243
:1045300069460A48FEF72DFF08B1FCF73DFF0C2243
:1045400069460648FEF725FF08B1FCF735FF03482A
:10455000FEF7D0FE0EB010BD00040040C4020020E3
:1045600010B586B000241748009401940294039477
:1045700004941349059401604721C0E901144FF6E2
:10458000FF71C0E903148461FEF788FC08B1FCF7F1
:1045900013FF4FF48050009069460A48FEF786FDED
:1045A00008B1FCF709FF049404A906480594FEF736
:1045B00037FC002801D0FCF7FFFE06B010BD00005C
:1045C000000800400C03002010B586B000241748F6
:1045D0000094019402940394049413490594016097
:1045E0004721C0E9011440F2E731C0E903148461B6
:1045F000FEF754FC08B1FCF7DFFE4FF4805000904A
:1046000069460A48FEF752FD08B1FCF7D5FE04944E
:1046100004A906480594FEF703FC002801D0FCF726
:10462000CBFE06B010BD0000000C0040540300207B
:104630001CB500240E4800940C49019401604721E8
:10464000C0E901144FF6FF718461C160FEF726FCDA
:1046500008B1FCF7B1FE0094694605480194FEF7E5
:10466000DFFB002801D0FCF7A7FE1CBD00140040B2
:104670009C03002010B596B000240F941094119460
:10468000129413941C2108A81494FBF7E4FD202134
:104690006846FBF7E0FD27482549C0E90014592189
:1046A000C0E90241046144618461FEF7F7FB08B18F
:1046B000FCF782FE4FF480500F900FA91D48FEF7C3
:1046C000F5FC08B1FCF778FE1A48FEF7C8FE08B101
:1046D000FCF772FE139413A916481494FEF7A0FB7E
:1046E00008B1FCF769FE6020CDE908040A940C9437
:1046F0000D940C2208A90F480E94FEF74AFE08B14B
:10470000FCF75AFE00944FF40050CDE904400294A7
:1047100001940394694607480794FEF757FB08B1D4
:10472000FCF74AFE0348FEF7E5FD16B010BD000099
:1047300000340140E40300200C4810B50A49016030
:104740004FF416514160002181600C22C160C0E924
:1047500004128161C161FFF79DF9002803D0BDE813
:104760001040FCF729BE10BD004C00409004002012
:104770000C4810B50A4901604FF4E1314160002155
:1047800081600C22C160C0E904128161C161FFF740
:1047900081F9002803D0BDE81040FCF70DBE10BD24
:1047A00000500040D80400200C4810B50A490160B0
:1047B0004FF4E1314160002181600C22C160C0E909
:1047C00004128161C161FFF765F9002803D0BDE8DB
:1047D0001040FCF7F1BD10BD00380140200500205D
:1047E0000C4810B50A4901604FF4E13141600021E5
:1047F00081600C22C160C0E904128161C161FFF7D0
:1048000049F9002803D0BDE81040FCF7D5BD10BD24
:1048100000440040680500200C4810B50A490160BA
:104820004FF416514160002181600C22C160C0E943
:1048300004128161C161FFF72DF9002803D0BDE8A2
:104840001040FCF7B9BD10BD00480040B005002085
:1048500010B500220F49104801F046FC08B1FCF7E2
:10486000ABFD0E490C4801F023FE08B1FCF7A4FD96
:104870000B49094801F060FA08B1FCF79DFD0648B4
:1048800001F06CFE002803D0BDE81040FCF794BD99
:1048900010BD0000C40000207C1F0020000200208A
:1048A00014010020FEE700002DE9F05F444E40F2C5
:1048B000DC59DFF81081B6F90A10434FA6F576747B
:1048C00049450DDA002525600121386803F0F4FD23
:1048D000A8F80050A8F80250A8F80450A8F806500C
:1048E000B6F90400B0F5966F0DDAB6F90A0040F299
:1048F000E731A0F2DD50884205D201200146206058
:10490000386803F027FE022200231146386803F0BE
:1049100057FE002802DBC0F34000606020680128D9
:104920003ED1606801283BD125483030C068FBF794
:104930007FFD04462248C038406BFBF779FD2618FE
:10494000224CD4F89400FBF773FD8346A6EB0B05CD
:10495000D4F85401FBF76CFD824605EB0A07D4F846
:104960001402FBF765FD0246B81A06EB0B0300F2D2
:10497000DC5003EB0A04A8F80000A01800F2DC5099
:10498000A8F80200A3EB0A03981A00F2DC50A8F87A
:104990000400A5EB0A03981800F2DC50A8F8060002
:1049A0000B490A68C2F834900A68C2F838900A685D
:1049B000C2F83C900968C1F84090BDE8F09F000043
:1049C000683500205C02002024000020A83100206F
:1049D000C402002070B50F4C4FF4FA6021684863A0
:1049E000216888632168C8632168086440F6B83587
:1049F0002846FDF711F820684FF47A71416320686A
:104A000081632068C163206801642846BDE8704066
:104A1000FDF702B8C4020020FEE700002DE9F041D6
:104A20003D493E4C0A464B781278002673B18C46BD
:104A30009CF801506D1CEFB29CF80050062B054409
:104A4000EDB20DD2E0544F700D705DE0EF2801D053
:104A50004E7059E001234B702070EF320A7053E022
:104A60001A2B03D2E0540D704F704DE04CD1A0765C
:104A70008846904248D1A37AE27A217B607B03F09A
:104A80001DFC02283CD3254F207C3037A7F11405AC
:104A9000012807D1A37AE27A217B607B03F00EFC28
:104AA00068603860E07D012809D1A17CE07C04F0D9
:104AB0002FFCA881217D607D04F02AFCE881207C08
:104AC00001281DD1E07D01281AD1B5F90C203968E3
:104AD00064204A4392FBF0F2BA80B5F90E204A43B3
:104AE00092FBF0F0F8800EA002F054FFB7F904102A
:104AF0000FA002F04FFFB7F906100FA002F04AFF17
:104B000088F8016088F80060BDE8F04103490CA016
:104B10003031FCF7D9BA000084020020243B002089
:104B200044697374616E63653A25750A0D0000006F
:104B300052783A25640A0D0052793A25640A0D002C
:104B4000670000002DE9F84F044640F68F7B48F6D9
:104B50000F794FF480684FF0000AC0E1B0F84410BC
:104B600011F00F0539D030F8256031047ED530F8CA
:104B7000251001EA0B0141F0800120F8251005EB1A
:104B8000850004EBC00797F8740107F5B477002897
:104B90006DD0F87802286BD03978226832F821007D
:104BA00048F68F73184048F2C003184322F82100DA
:104BB0003978206830F82120B0F8503052047DD583
:104BC000022202EBC1015A1808EB4201415A890541
:104BD000890D009173D03A89DFE0C9062DD4018890
:104BE00001EA090141F400410180206804F128052F
:104BF000B0F850302978022202EBC1015A1808EBB4
:104C00004201405AC0F309006064E16B0844E0636C
:104C100000212046FDF739F994F8240000289CD0A3
:104C2000A869002899D194F82400216840F08000F8
:104C3000A1F84C0084F824A051E1018804F5B47572
:104C40000A0521D5B0F850202B78062101EBC301CD
:104C50000A4408EB4201405A04F52C71C0F30903E1
:104C6000EB61EA88206802F0A1FA02E0B0E070E0AF
:104C700080E02068018801EA0B0141F08001018099
:104C80002046FDF76CFD2AE10904D5D5018801EA2B
:104C90000B0141F0800101802068B0F850202B7892
:104CA000062101EBC3010A4408EB4201405A830587
:104CB0009B0DEB6110D0696971B101E061E05FE0CB
:104CC000EA88206802F072FAE96968690844686154
:104CD00000212046FDF7E2F8216808880205ABD4E0
:104CE000C0F301300328A7D0B1F850000844B0F851
:104CF0000C14C1F30901A0F80C142A6900F20C404D
:104D00003E2A09D95109D20600D1491E02884FF422
:104D1000004343EA812109E0B2B15108D20700D033
:104D2000491C02884FF6FF7303EA81210A4302807F
:104D3000216808884BF68F72104080F4405048F28A
:104D4000800210430880CAE0018841F400410180DC
:104D5000EEE72068B0F850203B78062101EBC30154
:104D60000A4408EB4201415A8905890D009118D087
:104D7000FA8812E0324639462046FDF7EDF80090F9
:104D80000FE0062202EBC1015A1808EB4201415A1A
:104D90008905890D009104D07A897969009B02F018
:104DA00005FAF86900990844F8617969009808449F
:104DB0007861B86918B139690098814204D93978A5
:104DC0002046FDF76BF803E03946206801F06AFFE2
:104DD00030062FD505EB850004EBC001206830F8C4
:104DE000252002EA090242F4004220F8252091F829
:104DF0002B00283101281ED0F0056CD42068B0F8B3
:104E000050300D78022202EBC5021A4408EB420230
:104E1000805A8A69C0F30900824255D9121A8A6100
:104E200054D04A6902444A61CA691044C861206882
:104E300001F038FF53E0C1F818A0087B524608B3D0
:104E4000700620D5487810B1012812D03AE02068C9
:104E5000B0F8502010440A7800EB0210B0F8042497
:104E6000C2F30902A0F80424B0F8042442F400427A
:104E700006E02068B0F8503018440B7800EB0310BF
:104E8000A0F804241EE04B78206813B1012B11D048
:104E900018E0B0F8502010440A7800EB0210B0F887
:104EA0000C24C2F30902A0F80C24B0F80C2442F43C
:104EB000004205E0B0F8503018440B7800EB0310C6
:104EC000A0F80C24097802E0C1F818A0E9B2204645
:104ED000FCF7DBFF03E032462046FDF7B0F8206820
:104EE000B0F8441009043FF539AE0020BDE8F88F52
:104EF0002DE9F0479846DDE908A915460C4610F063
:104F0000FF4F52D001464FF07E50FBF739FA07466B
:104F1000C4F848804646414628462564FBF7F8F920
:104F20000146A0602068FBF7F9F9606294F8380048
:104F3000FBF779FA6168FBF7F1F9E168FBF7EEF945
:104F4000A0623046E16CFBF7E3F9A16DFBF7E6F9EF
:104F50003946FBF7E3F906462846616CFBF7D8F9BA
:104F6000616DFBF7DBF93946FBF7D8F93146FBF702
:104F7000CFF90025E062B9F1000F18D0E560514685
:104F8000206DFBF7CBF9616AFBF770F9A16AFBF7BB
:104F90006DF9E16AFBF76AF96063A0686061206CF3
:104FA0006064A06CE064BDE8F0870027B0E740468D
:104FB000E169FBF761FA06D3E069414680F0004001
:104FC000FBF75AFA02D284F83850D8E7012084F867
:104FD0003800D4E90210FBF749F90146E060206A85
:104FE00080F00040FBF748FA03D8206A80F00040C8
:104FF00007E0216AE068FBF73FFA01D2206A00E08F
:10500000E068E060BBE700002DE9F04F9748984961
:10501000984F02680020984E984D4FF07C5E01F545
:10502000107401F54073002A7ED0954A52F810CFD3
:10503000C1F800C0D2F804C0C1F804C081F838003B
:10504000CF61D2F80CC0C1F820C0D2F820C0C1F89E
:1050500060C0D2F824C0C1F864C0D2F828C0C1F83A
:10506000B8C0C1F8B4C081F89800CE67D2F82CC09F
:10507000C1F880C052F810CCC1F8C0C052F80CCCB6
:10508000C1F8C4C052F808CCC1F858C0C1F814C166
:1050900081F8F800C1F8DC7052F804CCC1F8E0C027
:1050A000D2F810C0C1F820C1D2F814C0C1F824C190
:1050B000D2F818C0C1F878C1C1F874C181F858019C
:1050C000C1F83C61D669C1F840616E4EC1E96060CB
:1050D000C1F854E0C1F8D4E16B4E81F8B801C1E9E0
:1050E0006776176BC1F8E071576BC1F8E471976B85
:1050F000C1F83872C1F8347281F81802C1F8FC6145
:10510000D66BC1F80062116E2160516E61606065FE
:10511000916EA16584F83800E561D16E2162116F4E
:105120002166516F616600E02BE0C4F8B400916F16
:10513000C4F8B81084F89800E567D16FC4F88010FF
:10514000116C1966516CC3F8B0005966C3F8B4000D
:10515000916CC3F8B81083F898004C49D967D16CAA
:10516000C3F88010116D1960516D1865596058654C
:10517000916D996583F83800DD61D06D1862BDE8E6
:10518000F08FDFF80C91C1E900908865486581F8DF
:105190003800DFF808B1DFF800C1C1F8B8B04FF04F
:1051A0007E52C1F8B4B0BA46C1E9182C394FC1E9F2
:1051B00007A781F89800C1E93090C1F81401C1E94E
:1051C0001F6781F8F800C1E9482CC1F878B1C1F82F
:1051D00074B1C1E937A781F85801C1F88001C1F85D
:1051E0008401C1F8D401C1E94F6781F8B801C1F861
:1051F0009C01C1F8A001C1E978E0C1F83402C1F80E
:10520000380281F81802204EC1F8FC61244EC1F822
:1052100000622449C4E900106065A06584F8380084
:10522000C4E91810204EC4F8B400C4F8B800C4E9AA
:10523000075684F89800C4E91F56C3E91820C3F83C
:10524000B000C3F8B400C3F8B80083F898000F4961
:10525000C3E91F10C3E9002018655865986583F8F5
:1052600038001248C3E9075089E700006C020020AB
:10527000A831002000000C420000FA430000484220
:10528000083900200000A040000048430000C84248
:105290000000E04000007A440AD7233C6F12033B31
:1052A00000009644AE47613E000020410000F041FE
:1052B000FCF7A4F803F016F80A2003F0E3F8F7E788
:1052C00010B5104802F066FB0F4802F063FB0FA018
:1052D00002F060FB194802F05DFB19A002F05AFBD6
:1052E00021A002F057FB2BA002F054FB36A002F0E5
:1052F00051FB42A002F04EFBBDE81040464802F0D0
:1053000049BB0000F8AD0008A0AC0008554152545C
:105310002053454E443A615C725C6E20202041630C
:1053200063656C65726174696F6E2063616C69623C
:10533000726174696F6E2E0D0A00000090AD000856
:10534000554152542053454E443A555C725C6E2090
:10535000202042616E64776964746820696E6372AC
:10536000656173652E0D0A00554152542053454E18
:10537000443A755C725C6E20202042616E647769ED
:1053800064746820726564756374696F6E2E0D0AAB
:1053900000000000554152542053454E443A425CAF
:1053A000725C6E20202042617564207261746520F9
:1053B000696E6372656173656420746F2031313585
:1053C0003230302E0D0A0000554152542053454EC4
:1053D000443A625C725C6E202020426175642072E7
:1053E00061746520726564756374696F6E20746F93
:1053F00020393630302E0D0A00000000554152543D
:105400002053454E443A685C725C6E2020206865EB
:105410006C702E0D0A0000003CAD0008FFF718FA72
:10542000094C0121E06803F07DFA1421206903F0A2
:1054300079FA4FF4FA61606903F074FAFBF7F4FE4D
:10544000142003F01FF8F9E70000002010B55020E9
:1054500080F31188BFF34F8FBFF36F8F05F014F8FF
:1054600018B104494FF080500860002080F3118883
:1054700010BD000004ED00E030B595B0282168466D
:10548000FAF7E9FE14210AA8FAF7E5FE18210FA899
:10549000FAF7E1FE01210804CDE90010002402948E
:1054A00002250491CDE907504FF4E01009906846B9
:1054B000FDF7FAFA08B172B6FEE70F20CDE90A054A
:1054C0004FF48060CDE90C4002210AA80E94FDF74C
:1054D000EFF908B172B6FEE7102014940F900FA8F0
:1054E000FDF770F9002801D072B6FEE715B030BDA7
:1054F000704700000148FDF749BE0000540300203A
:105500000148FDF743BE000060060020F0B50268C8
:105510001C4B1D4D1D4E1E4F1E4C4FF0804C984293
:1055200009D0A04207D0604505D0A84203D0B042C0
:1055300001D0B84204D122F0700E4A6842EA0E024D
:10554000984209D0A04207D0604505D0A84203D0B8
:10555000B04201D0B84203D122F44075CA682A4350
:105560004D6922F080022A4302608A68C2620A689A
:105570008262984201D0A04201D1096901630121F0
:105580004161F0BD002C01400004004000080040D3
:10559000000C00400034014010B501F01F03012150
:1055A000046A99408C430462016A9A401143016283
:1055B00010BD10B5446A0121626A824205D121778B
:1055C0008069F8B984F83E101CE0A26A824206D1D4
:1055D000022222778069A8B984F83F1012E0E26ABB
:1055E000824206D104222277806958B984F840109B
:1055F00008E0226B824205D108222277806908B92F
:1056000084F841102046FDF759FF0020207710BD97
:1056100010B5446A616A814201D101200DE0A16A9E
:10562000814201D1022008E0E16A814201D10420D7
:1056300003E0216B814201D1082020772046FDF74D
:105640004DFF0020207710BD10B5446A0121626A29
:10565000824203D1217784F83E1019E0A26A824287
:1056600004D10220207784F83F1011E0E26A8242E0
:1056700004D10420207784F8401009E0226B824294
:1056800004D10820207784F8411001E084F83D100F
:105690002046FDF779FD0020207710BD10B5846805
:1056A00042EA032224F47F440A432243826010BD6D
:1056B000826822F070020A4342F00701816070475D
:1056C000F0B5036A026A22F001020262426884694C
:1056D000124E24F073050C682C4323F002058B68EE
:1056E0002B430D4DA84201D0B04205D123F008074D
:1056F000CB683B4323F00403A84201D0B04205D15C
:105700004D6922F4407215438A692A4342608461DC
:10571000496841630362F0BD002C01400034014040
:10572000F0B5026A036A23F01003036243688469D8
:105730000D6824F4E64444EA05248D6822F0200232
:1057400042EA05120F4D104EA84201D0B04206D1D8
:10575000CF6822F0800242EA071222F04002A842FB
:1057600001D0B04207D14D6923F4406343EA850379
:105770008D6943EA850343608461496881630262FD
:10578000F0BD0000002C014000340140F0B5026A79
:10579000036A23F4807303624368C46922F40072CD
:1057A00024F073050C68124E2C438D6842EA0522E2
:1057B0000E4DA84201D0B04206D1CF6822F400625B
:1057C00042EA072222F48062A84201D0B04207D107
:1057D0004D6923F4405343EA05138D6943EA0513E9
:1057E0004360C4614968C1630262F0BD002C01409E
:1057F0000034014030B5046A026A22F48052026229
:105800004268C3690D6823F4E64343EA05238D68C3
:1058100024F4005444EA0534084DA84202D0084D4F
:10582000A84204D14D6922F4804242EA85124260C6
:10583000C36149680164046230BD0000002C01406E
:105840000034014010B5036A046A24F001040462C4
:10585000846924F0F00444EA021423F00A020A43A3
:105860008461026210BD10B5036A046A24F010045A
:105870000462846923F0A00324F4704444EA0232F1
:1058800043EA01118261016210BD704710B503F057
:10589000C1FC002805D0D0E90021BDE81040084631
:1058A000104710BD0A2002F0EDFDFBE70148FDF7AF
:1058B000BBBF0000900400200148FDF7B5BF000009
:1058C000D804002010B5406A0021C185C184FDF7CD
:1058D000A9FF10BD01680C3151E8002F22F490722D
:1058E00041E80023002BF5D10168143151E8002F65
:1058F00022F0010241E80023002BF5D1016B0129C0
:1059000009D101680C3151E8002F22F0100241E862
:105910000023002BF5D1202180F8421000210163E3
:10592000704708B590F84210222901D0022008BD26
:1059300082684FF480539A4201D1016921B1816A92
:105940009A421BD04AB10AE00268816A5268C2F3E7
:1059500008020A80816A891C08E0026972B1026843
:10596000526802F07F020A70816A491C8162C18D0F
:10597000491E0904090CC18503D01BE00268526866
:10598000F1E70168CA6822F02002CA600168CA68AB
:1059900022F48072CA6001684A6922F001024A61F9
:1059A000202180F8421000214163026B012A03D0BC
:1059B000FEF7AEF9002008BD016301680C3151E823
:1059C000002F22F0100241E80023002BF5D10168DE
:1059D0000A68D20602D50A6849680091818DFDF7F0
:1059E00020FFE7E770B5044600680169E26821F42A
:1059F0004051114301612169A0680843616908436E
:105A00002168CA6841F20C639A430243CA60206865
:105A10004169A26921F44071114341611E49206826
:105A2000884202D1FDF70AF801E0FCF7F7FF00EB2E
:105A3000C00101EB0012606864218000B2FBF0F34A
:105A4000B3FBF1F36FF018067343B2FBF0F5B2FB52
:105A5000F0F605EB8305322303EB0515B5FBF1F5F5
:105A6000B6FBF1F605F0F00505EB0615B2FBF0F616
:105A7000B2FBF0F0B0FBF1F06FF01802504306EB10
:105A8000800003EB0010B0FBF1F0216800F00F0084
:105A90002844886070BD0000003801408162828522
:105AA000C28500214164222180F84210016921B1A0
:105AB0000168CA6842F48072CA6001684A6942F0AB
:105AC00001024A610068C16841F02001C160002004
:105AD00070472DE9F041984617460E460446069D4C
